{
  "contractName": "EIP712MetaTransaction",
  "abi": [
    {
      "inputs": [
        {
          "internalType": "string",
          "name": "name",
          "type": "string"
        },
        {
          "internalType": "string",
          "name": "version",
          "type": "string"
        }
      ],
      "payable": false,
      "stateMutability": "nonpayable",
      "type": "constructor"
    },
    {
      "anonymous": false,
      "inputs": [
        {
          "indexed": false,
          "internalType": "address",
          "name": "userAddress",
          "type": "address"
        },
        {
          "indexed": false,
          "internalType": "address payable",
          "name": "relayerAddress",
          "type": "address"
        },
        {
          "indexed": false,
          "internalType": "bytes",
          "name": "functionSignature",
          "type": "bytes"
        }
      ],
      "name": "MetaTransactionExecuted",
      "type": "event"
    },
    {
      "payable": true,
      "stateMutability": "payable",
      "type": "fallback"
    },
    {
      "constant": false,
      "inputs": [
        {
          "internalType": "address",
          "name": "userAddress",
          "type": "address"
        },
        {
          "internalType": "bytes",
          "name": "functionSignature",
          "type": "bytes"
        },
        {
          "internalType": "bytes32",
          "name": "sigR",
          "type": "bytes32"
        },
        {
          "internalType": "bytes32",
          "name": "sigS",
          "type": "bytes32"
        },
        {
          "internalType": "uint8",
          "name": "sigV",
          "type": "uint8"
        }
      ],
      "name": "executeMetaTransaction",
      "outputs": [
        {
          "internalType": "bytes",
          "name": "",
          "type": "bytes"
        }
      ],
      "payable": true,
      "stateMutability": "payable",
      "type": "function"
    },
    {
      "constant": true,
      "inputs": [
        {
          "internalType": "address",
          "name": "user",
          "type": "address"
        }
      ],
      "name": "getNonce",
      "outputs": [
        {
          "internalType": "uint256",
          "name": "nonce",
          "type": "uint256"
        }
      ],
      "payable": false,
      "stateMutability": "view",
      "type": "function"
    }
  ],
  "bytecode": "0x60806040523480156200001157600080fd5b50604051620010a8380380620010a883398181016040526200003791908101906200011b565b8181604051806080016040528060528152602001620010566052913980519060200120828051906020012082805190602001206200007a620000b760201b60201c565b3060405160200162000091959493929190620001c1565b6040516020818303038152906040528051906020012060008190555050505050620002f7565b600046905090565b600082601f830112620000d157600080fd5b8151620000e8620000e2826200024c565b6200021e565b915080825260208301602083018583830111156200010557600080fd5b62000112838284620002c1565b50505092915050565b600080604083850312156200012f57600080fd5b600083015167ffffffffffffffff8111156200014a57600080fd5b6200015885828601620000bf565b925050602083015167ffffffffffffffff8111156200017657600080fd5b6200018485828601620000bf565b9150509250929050565b620001998162000279565b82525050565b620001aa816200028d565b82525050565b620001bb81620002b7565b82525050565b600060a082019050620001d860008301886200019f565b620001e760208301876200019f565b620001f660408301866200019f565b620002056060830185620001b0565b6200021460808301846200018e565b9695505050505050565b6000604051905081810181811067ffffffffffffffff821117156200024257600080fd5b8060405250919050565b600067ffffffffffffffff8211156200026457600080fd5b601f19601f8301169050602081019050919050565b6000620002868262000297565b9050919050565b6000819050919050565b600073ffffffffffffffffffffffffffffffffffffffff82169050919050565b6000819050919050565b60005b83811015620002e1578082015181840152602081019050620002c4565b83811115620002f1576000848401525b50505050565b610d4f80620003076000396000f3fe6080604052600436106100295760003560e01c80630c53c51c1461002b5780632d0335ab1461005b575b005b610045600480360361004091908101906105f5565b610098565b6040516100529190610a3b565b60405180910390f35b34801561006757600080fd5b50610082600480360361007d91908101906105cc565b610312565b60405161008f9190610abd565b60405180910390f35b60606100a2610502565b6040518060600160405280600160008a73ffffffffffffffffffffffffffffffffffffffff1673ffffffffffffffffffffffffffffffffffffffff1681526020019081526020016000205481526020018873ffffffffffffffffffffffffffffffffffffffff168152602001878152509050610121878287878761035b565b610160576040517f08c379a000000000000000000000000000000000000000000000000000000000815260040161015790610a9d565b60405180910390fd5b600060603073ffffffffffffffffffffffffffffffffffffffff16888a3360405160200161019093929190610903565b6040516020818303038152906040526040516101ac91906108ec565b6000604051808303816000865af19150503d80600081146101e9576040519150601f19603f3d011682016040523d82523d6000602084013e6101ee565b606091505b509150915081610233576040517f08c379a000000000000000000000000000000000000000000000000000000000815260040161022a90610a7d565b60405180910390fd5b61028560018060008c73ffffffffffffffffffffffffffffffffffffffff1673ffffffffffffffffffffffffffffffffffffffff168152602001908152602001600020546103f590919063ffffffff16565b600160008b73ffffffffffffffffffffffffffffffffffffffff1673ffffffffffffffffffffffffffffffffffffffff168152602001908152602001600020819055507f5845892132946850460bff5a0083f71031bc5bf9aadcd40f1de79423eac9b10b89338a6040516102fb93929190610973565b60405180910390a180935050505095945050505050565b6000600160008373ffffffffffffffffffffffffffffffffffffffff1673ffffffffffffffffffffffffffffffffffffffff168152602001908152602001600020549050919050565b6000600161037061036b8761044a565b6104c0565b8386866040516000815260200160405260405161039094939291906109f6565b6020604051602081039080840390855afa1580156103b2573d6000803e3d6000fd5b5050506020604051035173ffffffffffffffffffffffffffffffffffffffff168673ffffffffffffffffffffffffffffffffffffffff1614905095945050505050565b600080828401905083811015610440576040517f08c379a000000000000000000000000000000000000000000000000000000000815260040161043790610a5d565b60405180910390fd5b8091505092915050565b6000604051806080016040528060438152602001610cca604391398051906020012082600001518360200151846040015160405161048891906108d5565b60405180910390206040516020016104a394939291906109b1565b604051602081830303815290604052805190602001209050919050565b60006104ca6104f9565b826040516020016104dc92919061093c565b604051602081830303815290604052805190602001209050919050565b60008054905090565b604051806060016040528060008152602001600073ffffffffffffffffffffffffffffffffffffffff168152602001606081525090565b60008135905061054881610c84565b92915050565b60008135905061055d81610c9b565b92915050565b600082601f83011261057457600080fd5b813561058761058282610b05565b610ad8565b915080825260208301602083018583830111156105a357600080fd5b6105ae838284610be4565b50505092915050565b6000813590506105c681610cb2565b92915050565b6000602082840312156105de57600080fd5b60006105ec84828501610539565b91505092915050565b600080600080600060a0868803121561060d57600080fd5b600061061b88828901610539565b955050602086013567ffffffffffffffff81111561063857600080fd5b61064488828901610563565b94505060406106558882890161054e565b93505060606106668882890161054e565b9250506080610677888289016105b7565b9150509295509295909350565b61068d81610b91565b82525050565b6106a461069f82610b91565b610c38565b82525050565b6106b381610b7f565b82525050565b6106ca6106c582610b7f565b610c26565b82525050565b6106d981610ba3565b82525050565b6106f06106eb82610ba3565b610c4a565b82525050565b600061070182610b3c565b61070b8185610b47565b935061071b818560208601610bf3565b61072481610c66565b840191505092915050565b600061073a82610b3c565b6107448185610b58565b9350610754818560208601610bf3565b80840191505092915050565b600061076b82610b31565b6107758185610b58565b9350610785818560208601610bf3565b80840191505092915050565b600061079e600283610b74565b91507f19010000000000000000000000000000000000000000000000000000000000006000830152600282019050919050565b60006107de601b83610b63565b91507f536166654d6174683a206164646974696f6e206f766572666c6f7700000000006000830152602082019050919050565b600061081e601d83610b63565b91507f46756e6374696f6e2063616c6c206e6f74207375636365737366756c6c0000006000830152602082019050919050565b600061085e602183610b63565b91507f5369676e657220616e64207369676e617475726520646f206e6f74206d61746360008301527f68000000000000000000000000000000000000000000000000000000000000006020830152604082019050919050565b6108c081610bcd565b82525050565b6108cf81610bd7565b82525050565b60006108e18284610760565b915081905092915050565b60006108f8828461072f565b915081905092915050565b600061090f828661072f565b915061091b82856106b9565b60148201915061092b8284610693565b601482019150819050949350505050565b600061094782610791565b915061095382856106df565b60208201915061096382846106df565b6020820191508190509392505050565b600060608201905061098860008301866106aa565b6109956020830185610684565b81810360408301526109a781846106f6565b9050949350505050565b60006080820190506109c660008301876106d0565b6109d360208301866108b7565b6109e060408301856106aa565b6109ed60608301846106d0565b95945050505050565b6000608082019050610a0b60008301876106d0565b610a1860208301866108c6565b610a2560408301856106d0565b610a3260608301846106d0565b95945050505050565b60006020820190508181036000830152610a5581846106f6565b905092915050565b60006020820190508181036000830152610a76816107d1565b9050919050565b60006020820190508181036000830152610a9681610811565b9050919050565b60006020820190508181036000830152610ab681610851565b9050919050565b6000602082019050610ad260008301846108b7565b92915050565b6000604051905081810181811067ffffffffffffffff82111715610afb57600080fd5b8060405250919050565b600067ffffffffffffffff821115610b1c57600080fd5b601f19601f8301169050602081019050919050565b600081519050919050565b600081519050919050565b600082825260208201905092915050565b600081905092915050565b600082825260208201905092915050565b600081905092915050565b6000610b8a82610bad565b9050919050565b6000610b9c82610bad565b9050919050565b6000819050919050565b600073ffffffffffffffffffffffffffffffffffffffff82169050919050565b6000819050919050565b600060ff82169050919050565b82818337600083830152505050565b60005b83811015610c11578082015181840152602081019050610bf6565b83811115610c20576000848401525b50505050565b6000610c3182610c54565b9050919050565b6000610c4382610c54565b9050919050565b6000819050919050565b6000610c5f82610c77565b9050919050565b6000601f19601f8301169050919050565b60008160601b9050919050565b610c8d81610b7f565b8114610c9857600080fd5b50565b610ca481610ba3565b8114610caf57600080fd5b50565b610cbb81610bd7565b8114610cc657600080fd5b5056fe4d6574615472616e73616374696f6e2875696e74323536206e6f6e63652c616464726573732066726f6d2c62797465732066756e6374696f6e5369676e617475726529a365627a7a7231582092018901677104af36a6d90911f61ede012a417f8a54efc8b55df787daab94b06c6578706572696d656e74616cf564736f6c63430005100040454950373132446f6d61696e28737472696e67206e616d652c737472696e672076657273696f6e2c75696e7432353620636861696e49642c6164647265737320766572696679696e67436f6e747261637429",
  "source": "pragma solidity ^0.5.13;\npragma experimental ABIEncoderV2;\n\nimport \"./libraries/EIP712Base.sol\";\nimport \"./libraries/SafeMath.sol\";\n\ncontract EIP712MetaTransaction is EIP712Base {\n    using SafeMath for uint256;\n    bytes32 private constant META_TRANSACTION_TYPEHASH = keccak256(bytes(\"MetaTransaction(uint256 nonce,address from,bytes functionSignature)\"));\n\n    event MetaTransactionExecuted(address userAddress, address payable relayerAddress, bytes functionSignature);\n    mapping(address => uint256) nonces;\n\n    /*\n     * Meta transaction structure.\n     * No point of including value field here as if user is doing value transfer then he has the funds to pay for gas\n     * He should call the desired function directly in that case.\n     */\n    struct MetaTransaction {\n\t\tuint256 nonce;\n\t\taddress from;\n        bytes functionSignature;\n\t}\n\n    constructor(string memory name, string memory version) public EIP712Base(name, version) {}\n\n    function executeMetaTransaction(address userAddress,\n        bytes memory functionSignature, bytes32 sigR, bytes32 sigS, uint8 sigV) public payable returns(bytes memory) {\n\n        MetaTransaction memory metaTx = MetaTransaction({\n            nonce: nonces[userAddress],\n            from: userAddress,\n            functionSignature: functionSignature\n        });\n        require(verify(userAddress, metaTx, sigR, sigS, sigV), \"Signer and signature do not match\");\n        // Append userAddress and relayer address at the end to extract it from calling context\n        (bool success, bytes memory returnData) = address(this).call(abi.encodePacked(functionSignature, userAddress, msg.sender));\n\n        require(success, \"Function call not successfull\");\n        nonces[userAddress] = nonces[userAddress].add(1);\n        emit MetaTransactionExecuted(userAddress, msg.sender, functionSignature);\n        return returnData;\n    }\n\n    function hashMetaTransaction(MetaTransaction memory metaTx) internal view returns (bytes32) {\n\t\treturn keccak256(abi.encode(\n            META_TRANSACTION_TYPEHASH,\n            metaTx.nonce,\n            metaTx.from,\n            keccak256(metaTx.functionSignature)\n        ));\n\t}\n\n    function getNonce(address user) public view returns(uint256 nonce) {\n        nonce = nonces[user];\n    }\n\n    function verify(address signer, MetaTransaction memory metaTx, bytes32 sigR, bytes32 sigS, uint8 sigV) internal view returns (bool) {\n\t\treturn signer == ecrecover(toTypedMessageHash(hashMetaTransaction(metaTx)), sigV, sigR, sigS);\n\t}\n\n    function msgSender() internal view returns(address sender) {\n        if(msg.sender == address(this)) {\n            bytes20 userAddress;\n            bytes memory data = msg.data;\n            uint256 dataLength = msg.data.length;\n            assembly {\n                calldatacopy(0x0, sub(dataLength, 40), sub(dataLength, 20))\n                userAddress := mload(0x0)\n            }\n            sender = address(uint160(userAddress));\n        } else {\n            sender = msg.sender;\n        }\n    }\n\n    function msgRelayer() internal view returns(address relayer) {\n        if(msg.sender == address(this)) {\n            bytes20 relayerAddress;\n            bytes memory data = msg.data;\n            uint256 dataLength = msg.data.length;\n            assembly {\n                calldatacopy(0x0, sub(dataLength, 20), dataLength)\n                relayerAddress := mload(0x0)\n            }\n            relayer = address(uint160(relayerAddress));\n        }\n    }\n\n\n\n    // To recieve ether in contract\n    function() external payable { }\n}\n",
  "sourcePath": "/home/guest/blockchain/MoneyLegos/contracts/EIP712MetaTransaction.sol",
  "compiler": {
    "name": "solc",
    "version": "0.5.16+commit.9c3226ce.Emscripten.clang"
  },
  "schemaVersion": "3.0.23",
  "updatedAt": "2020-04-07T10:36:24.541Z",
  "devdoc": {
    "methods": {}
  },
  "userdoc": {
    "methods": {}
  }
}