{
  "contractName": "ExampleOracleSimple",
  "abi": [
    {
      "inputs": [
        {
          "internalType": "address",
          "name": "tokenA",
          "type": "address"
        },
        {
          "internalType": "address",
          "name": "tokenB",
          "type": "address"
        }
      ],
      "payable": false,
      "stateMutability": "nonpayable",
      "type": "constructor"
    },
    {
      "constant": true,
      "inputs": [],
      "name": "PERIOD",
      "outputs": [
        {
          "internalType": "uint256",
          "name": "",
          "type": "uint256"
        }
      ],
      "payable": false,
      "stateMutability": "view",
      "type": "function"
    },
    {
      "constant": true,
      "inputs": [],
      "name": "blockTimestampLast",
      "outputs": [
        {
          "internalType": "uint32",
          "name": "",
          "type": "uint32"
        }
      ],
      "payable": false,
      "stateMutability": "view",
      "type": "function"
    },
    {
      "constant": true,
      "inputs": [],
      "name": "factory",
      "outputs": [
        {
          "internalType": "contract IUniswapV2Factory",
          "name": "",
          "type": "address"
        }
      ],
      "payable": false,
      "stateMutability": "view",
      "type": "function"
    },
    {
      "constant": true,
      "inputs": [
        {
          "internalType": "uint256",
          "name": "amountOut",
          "type": "uint256"
        },
        {
          "internalType": "uint256",
          "name": "reserveIn",
          "type": "uint256"
        },
        {
          "internalType": "uint256",
          "name": "reserveOut",
          "type": "uint256"
        }
      ],
      "name": "getAmountIn",
      "outputs": [
        {
          "internalType": "uint256",
          "name": "amountIn",
          "type": "uint256"
        }
      ],
      "payable": false,
      "stateMutability": "pure",
      "type": "function"
    },
    {
      "constant": true,
      "inputs": [
        {
          "internalType": "uint256",
          "name": "amountIn",
          "type": "uint256"
        },
        {
          "internalType": "uint256",
          "name": "reserveIn",
          "type": "uint256"
        },
        {
          "internalType": "uint256",
          "name": "reserveOut",
          "type": "uint256"
        }
      ],
      "name": "getAmountOut",
      "outputs": [
        {
          "internalType": "uint256",
          "name": "amountOut",
          "type": "uint256"
        }
      ],
      "payable": false,
      "stateMutability": "pure",
      "type": "function"
    },
    {
      "constant": true,
      "inputs": [
        {
          "internalType": "uint256",
          "name": "amountOut",
          "type": "uint256"
        },
        {
          "internalType": "address[]",
          "name": "path",
          "type": "address[]"
        }
      ],
      "name": "getAmountsIn",
      "outputs": [
        {
          "internalType": "uint256[]",
          "name": "amounts",
          "type": "uint256[]"
        }
      ],
      "payable": false,
      "stateMutability": "view",
      "type": "function"
    },
    {
      "constant": true,
      "inputs": [
        {
          "internalType": "uint256",
          "name": "amountIn",
          "type": "uint256"
        },
        {
          "internalType": "address[]",
          "name": "path",
          "type": "address[]"
        }
      ],
      "name": "getAmountsOut",
      "outputs": [
        {
          "internalType": "uint256[]",
          "name": "amounts",
          "type": "uint256[]"
        }
      ],
      "payable": false,
      "stateMutability": "view",
      "type": "function"
    },
    {
      "constant": true,
      "inputs": [],
      "name": "pair",
      "outputs": [
        {
          "internalType": "contract IUniswapV2Pair",
          "name": "",
          "type": "address"
        }
      ],
      "payable": false,
      "stateMutability": "view",
      "type": "function"
    },
    {
      "constant": true,
      "inputs": [],
      "name": "price0Average",
      "outputs": [
        {
          "internalType": "uint224",
          "name": "",
          "type": "uint224"
        }
      ],
      "payable": false,
      "stateMutability": "view",
      "type": "function"
    },
    {
      "constant": true,
      "inputs": [],
      "name": "price0CumulativeLast",
      "outputs": [
        {
          "internalType": "uint256",
          "name": "",
          "type": "uint256"
        }
      ],
      "payable": false,
      "stateMutability": "view",
      "type": "function"
    },
    {
      "constant": true,
      "inputs": [],
      "name": "price1Average",
      "outputs": [
        {
          "internalType": "uint224",
          "name": "",
          "type": "uint224"
        }
      ],
      "payable": false,
      "stateMutability": "view",
      "type": "function"
    },
    {
      "constant": true,
      "inputs": [],
      "name": "price1CumulativeLast",
      "outputs": [
        {
          "internalType": "uint256",
          "name": "",
          "type": "uint256"
        }
      ],
      "payable": false,
      "stateMutability": "view",
      "type": "function"
    },
    {
      "constant": true,
      "inputs": [
        {
          "internalType": "uint256",
          "name": "amountA",
          "type": "uint256"
        },
        {
          "internalType": "uint256",
          "name": "reserveA",
          "type": "uint256"
        },
        {
          "internalType": "uint256",
          "name": "reserveB",
          "type": "uint256"
        }
      ],
      "name": "quote",
      "outputs": [
        {
          "internalType": "uint256",
          "name": "amountB",
          "type": "uint256"
        }
      ],
      "payable": false,
      "stateMutability": "pure",
      "type": "function"
    },
    {
      "constant": true,
      "inputs": [],
      "name": "token0",
      "outputs": [
        {
          "internalType": "address",
          "name": "",
          "type": "address"
        }
      ],
      "payable": false,
      "stateMutability": "view",
      "type": "function"
    },
    {
      "constant": true,
      "inputs": [],
      "name": "token1",
      "outputs": [
        {
          "internalType": "address",
          "name": "",
          "type": "address"
        }
      ],
      "payable": false,
      "stateMutability": "view",
      "type": "function"
    },
    {
      "constant": false,
      "inputs": [],
      "name": "update",
      "outputs": [],
      "payable": false,
      "stateMutability": "nonpayable",
      "type": "function"
    },
    {
      "constant": true,
      "inputs": [
        {
          "internalType": "address",
          "name": "token",
          "type": "address"
        },
        {
          "internalType": "uint256",
          "name": "amountIn",
          "type": "uint256"
        }
      ],
      "name": "consult",
      "outputs": [
        {
          "internalType": "uint256",
          "name": "amountOut",
          "type": "uint256"
        }
      ],
      "payable": false,
      "stateMutability": "view",
      "type": "function"
    }
  ],
  "bytecode": "0x60806040523480156200001157600080fd5b506040516200243f3803806200243f833981810160405260408110156200003757600080fd5b8101908080519060200190929190805190602001909291905050506200006482826200042960201b60201c565b600080600160008491906101000a81548173ffffffffffffffffffffffffffffffffffffffff021916908373ffffffffffffffffffffffffffffffffffffffff1602179055508391906101000a81548173ffffffffffffffffffffffffffffffffffffffff021916908373ffffffffffffffffffffffffffffffffffffffff1602179055505050620001406000809054906101000a900473ffffffffffffffffffffffffffffffffffffffff16600160009054906101000a900473ffffffffffffffffffffffffffffffffffffffff16620005a560201b60201c565b600260006101000a81548173ffffffffffffffffffffffffffffffffffffffff021916908373ffffffffffffffffffffffffffffffffffffffff160217905550600260009054906101000a900473ffffffffffffffffffffffffffffffffffffffff1673ffffffffffffffffffffffffffffffffffffffff16635909c0d56040518163ffffffff1660e01b815260040160206040518083038186803b158015620001e957600080fd5b505afa158015620001fe573d6000803e3d6000fd5b505050506040513d60208110156200021557600080fd5b8101908080519060200190929190505050600381905550600260009054906101000a900473ffffffffffffffffffffffffffffffffffffffff1673ffffffffffffffffffffffffffffffffffffffff16635a3d54936040518163ffffffff1660e01b815260040160206040518083038186803b1580156200029557600080fd5b505afa158015620002aa573d6000803e3d6000fd5b505050506040513d6020811015620002c157600080fd5b8101908080519060200190929190505050600481905550600080600260009054906101000a900473ffffffffffffffffffffffffffffffffffffffff1673ffffffffffffffffffffffffffffffffffffffff16630902f1ac6040518163ffffffff1660e01b815260040160606040518083038186803b1580156200034457600080fd5b505afa15801562000359573d6000803e3d6000fd5b505050506040513d60608110156200037057600080fd5b81019080805190602001909291908051906020019092919080519060200190929190505050600560008291906101000a81548163ffffffff021916908363ffffffff1602179055508193508294505050506000826dffffffffffffffffffffffffffff1614158015620003f457506000816dffffffffffffffffffffffffffff1614155b620003fb57fe5b6000600560009054906101000a900463ffffffff1663ffffffff1614156200041f57fe5b505050506200071b565b6000808273ffffffffffffffffffffffffffffffffffffffff168473ffffffffffffffffffffffffffffffffffffffff161415620004b3576040517f08c379a00000000000000000000000000000000000000000000000000000000081526004018080602001828103825260248152602001806200241b6024913960400191505060405180910390fd5b8273ffffffffffffffffffffffffffffffffffffffff168473ffffffffffffffffffffffffffffffffffffffff1610620004ef578284620004f2565b83835b8092508193505050600073ffffffffffffffffffffffffffffffffffffffff168273ffffffffffffffffffffffffffffffffffffffff1614156200059e576040517f08c379a000000000000000000000000000000000000000000000000000000000815260040180806020018281038252601d8152602001807f556e6973776170563248656c7065723a205a45524f5f4144445245535300000081525060200191505060405180910390fd5b9250929050565b6000806000620005bc85856200042960201b60201c565b9150915073e2f197885abe8ec7c866cff76605fd06d45762188282604051602001808373ffffffffffffffffffffffffffffffffffffffff1673ffffffffffffffffffffffffffffffffffffffff1660601b81526014018273ffffffffffffffffffffffffffffffffffffffff1673ffffffffffffffffffffffffffffffffffffffff1660601b8152601401925050506040516020818303038152906040528051906020012060405160200180807fff000000000000000000000000000000000000000000000000000000000000008152506001018373ffffffffffffffffffffffffffffffffffffffff1673ffffffffffffffffffffffffffffffffffffffff1660601b8152601401828152602001807f0b77fb54a078d9399fa29cac94f5b35b9f11611b456ab507c7f46754712b642b815250602001925050506040516020818303038152906040528051906020012060001c9250505092915050565b611cf0806200072b6000396000f3fe608060405234801561001057600080fd5b506004361061010b5760003560e01c8063a2e62045116100a2578063b4d1d79511610071578063b4d1d79514610519578063c45a015514610537578063c5700a0214610581578063d06ca61f146105ab578063d21220a7146106c25761010b565b8063a2e6204514610415578063a6bb45391461041f578063a8aa1b3114610479578063ad615dec146104c35761010b565b80635909c0d5116100de5780635909c0d5146103295780635a3d5493146103475780635e6aaf2c1461036557806385f8c259146103bf5761010b565b8063054d50d4146101105780630dfe1681146101665780631f00ca74146101b05780633ddac953146102c7575b600080fd5b6101506004803603606081101561012657600080fd5b8101908080359060200190929190803590602001909291908035906020019092919050505061070c565b6040518082815260200191505060405180910390f35b61016e61083c565b604051808273ffffffffffffffffffffffffffffffffffffffff1673ffffffffffffffffffffffffffffffffffffffff16815260200191505060405180910390f35b610270600480360360408110156101c657600080fd5b8101908080359060200190929190803590602001906401000000008111156101ed57600080fd5b8201836020820111156101ff57600080fd5b8035906020019184602083028401116401000000008311171561022157600080fd5b919080806020026020016040519081016040528093929190818152602001838360200280828437600081840152601f19601f820116905080830192505050505050509192919290505050610861565b6040518080602001828103825283818151815260200191508051906020019060200280838360005b838110156102b3578082015181840152602081019050610298565b505050509050019250505060405180910390f35b610313600480360360408110156102dd57600080fd5b81019080803573ffffffffffffffffffffffffffffffffffffffff169060200190929190803590602001909291905050506109c8565b6040518082815260200191505060405180910390f35b610331610b4c565b6040518082815260200191505060405180910390f35b61034f610b52565b6040518082815260200191505060405180910390f35b61036d610b58565b60405180827bffffffffffffffffffffffffffffffffffffffffffffffffffffffff167bffffffffffffffffffffffffffffffffffffffffffffffffffffffff16815260200191505060405180910390f35b6103ff600480360360608110156103d557600080fd5b81019080803590602001909291908035906020019092919080359060200190929190505050610b86565b6040518082815260200191505060405180910390f35b61041d610cc3565b005b610427611124565b60405180827bffffffffffffffffffffffffffffffffffffffffffffffffffffffff167bffffffffffffffffffffffffffffffffffffffffffffffffffffffff16815260200191505060405180910390f35b610481611152565b604051808273ffffffffffffffffffffffffffffffffffffffff1673ffffffffffffffffffffffffffffffffffffffff16815260200191505060405180910390f35b610503600480360360608110156104d957600080fd5b81019080803590602001909291908035906020019092919080359060200190929190505050611178565b6040518082815260200191505060405180910390f35b61052161125c565b6040518082815260200191505060405180910390f35b61053f611263565b604051808273ffffffffffffffffffffffffffffffffffffffff1673ffffffffffffffffffffffffffffffffffffffff16815260200191505060405180910390f35b61058961127b565b604051808263ffffffff1663ffffffff16815260200191505060405180910390f35b61066b600480360360408110156105c157600080fd5b8101908080359060200190929190803590602001906401000000008111156105e857600080fd5b8201836020820111156105fa57600080fd5b8035906020019184602083028401116401000000008311171561061c57600080fd5b919080806020026020016040519081016040528093929190818152602001838360200280828437600081840152601f19601f820116905080830192505050505050509192919290505050611291565b6040518080602001828103825283818151815260200191508051906020019060200280838360005b838110156106ae578082015181840152602081019050610693565b505050509050019250505060405180910390f35b6106ca6113f0565b604051808273ffffffffffffffffffffffffffffffffffffffff1673ffffffffffffffffffffffffffffffffffffffff16815260200191505060405180910390f35b6000808411610766576040517f08c379a000000000000000000000000000000000000000000000000000000000815260040180806020018281038252602a815260200180611c4d602a913960400191505060405180910390fd5b6000831180156107765750600082115b6107cb576040517f08c379a0000000000000000000000000000000000000000000000000000000008152600401808060200182810382526027815260200180611bd76027913960400191505060405180910390fd5b60006107e26103e58661141690919063ffffffff16565b905060006107f9848361141690919063ffffffff16565b90506000610824836108166103e88961141690919063ffffffff16565b61149c90919063ffffffff16565b905080828161082f57fe5b0493505050509392505050565b6000809054906101000a900473ffffffffffffffffffffffffffffffffffffffff1681565b60606002825110156108db576040517f08c379a000000000000000000000000000000000000000000000000000000000815260040180806020018281038252601d8152602001807f556e6973776170563248656c7065723a20494e56414c49445f5041544800000081525060200191505060405180910390fd5b815160405190808252806020026020018201604052801561090b5781602001602082028038833980820191505090505b509050828160018351038151811061091f57fe5b6020026020010181815250506000600183510390505b60008111156109c15760008061097485600185038151811061095357fe5b602002602001015186858151811061096757fe5b6020026020010151611524565b9150915061099684848151811061098757fe5b60200260200101518383610b86565b8460018503815181106109a557fe5b6020026020010181815250505050808060019003915050610935565b5092915050565b60008060009054906101000a900473ffffffffffffffffffffffffffffffffffffffff1673ffffffffffffffffffffffffffffffffffffffff168373ffffffffffffffffffffffffffffffffffffffff161415610a8957610a82610a7d83600560049054906101000a90047bffffffffffffffffffffffffffffffffffffffffffffffffffffffff167bffffffffffffffffffffffffffffffffffffffffffffffffffffffff1661164b90919063ffffffff16565b61171c565b9050610b46565b600160009054906101000a900473ffffffffffffffffffffffffffffffffffffffff1673ffffffffffffffffffffffffffffffffffffffff168373ffffffffffffffffffffffffffffffffffffffff1614610ae057fe5b610b43610b3e83600660009054906101000a90047bffffffffffffffffffffffffffffffffffffffffffffffffffffffff167bffffffffffffffffffffffffffffffffffffffffffffffffffffffff1661164b90919063ffffffff16565b61171c565b90505b92915050565b60035481565b60045481565b600660009054906101000a90047bffffffffffffffffffffffffffffffffffffffffffffffffffffffff1681565b6000808411610be0576040517f08c379a000000000000000000000000000000000000000000000000000000000815260040180806020018281038252602b815260200180611bfe602b913960400191505060405180910390fd5b600083118015610bf05750600082115b610c45576040517f08c379a0000000000000000000000000000000000000000000000000000000008152600401808060200182810382526027815260200180611bd76027913960400191505060405180910390fd5b6000610c6e6103e8610c60878761141690919063ffffffff16565b61141690919063ffffffff16565b90506000610c996103e5610c8b888761175c90919063ffffffff16565b61141690919063ffffffff16565b9050610cb86001828481610ca957fe5b0461149c90919063ffffffff16565b925050509392505050565b60006401000000004281610cd357fe5b0690506000600560009054906101000a900463ffffffff1682039050620151808163ffffffff161015610d0257fe5b6000600260009054906101000a900473ffffffffffffffffffffffffffffffffffffffff1673ffffffffffffffffffffffffffffffffffffffff16635909c0d56040518163ffffffff1660e01b815260040160206040518083038186803b158015610d6c57600080fd5b505afa158015610d80573d6000803e3d6000fd5b505050506040513d6020811015610d9657600080fd5b810190808051906020019092919050505090506000600260009054906101000a900473ffffffffffffffffffffffffffffffffffffffff1673ffffffffffffffffffffffffffffffffffffffff16635a3d54936040518163ffffffff1660e01b815260040160206040518083038186803b158015610e1357600080fd5b505afa158015610e27573d6000803e3d6000fd5b505050506040513d6020811015610e3d57600080fd5b810190808051906020019092919050505090506000806000600260009054906101000a900473ffffffffffffffffffffffffffffffffffffffff1673ffffffffffffffffffffffffffffffffffffffff16630902f1ac6040518163ffffffff1660e01b815260040160606040518083038186803b158015610ebd57600080fd5b505afa158015610ed1573d6000803e3d6000fd5b505050506040513d6060811015610ee757600080fd5b810190808051906020019092919080519060200190929190805190602001909291905050509250925092506000836dffffffffffffffffffffffffffff1614158015610f4457506000826dffffffffffffffffffffffffffff1614155b610f4a57fe5b8663ffffffff168163ffffffff1614611024578563ffffffff16610f9d84610f71856117a6565b7bffffffffffffffffffffffffffffffffffffffffffffffffffffffff166117d190919063ffffffff16565b7bffffffffffffffffffffffffffffffffffffffffffffffffffffffff1602850194508563ffffffff1661100083610fd4866117a6565b7bffffffffffffffffffffffffffffffffffffffffffffffffffffffff166117d190919063ffffffff16565b7bffffffffffffffffffffffffffffffffffffffffffffffffffffffff1602840193505b8563ffffffff1660035486038161103757fe5b04600560046101000a8154817bffffffffffffffffffffffffffffffffffffffffffffffffffffffff02191690837bffffffffffffffffffffffffffffffffffffffffffffffffffffffff1602179055508563ffffffff1660045485038161109b57fe5b04600660006101000a8154817bffffffffffffffffffffffffffffffffffffffffffffffffffffffff02191690837bffffffffffffffffffffffffffffffffffffffffffffffffffffffff160217905550846003819055508360048190555086600560006101000a81548163ffffffff021916908363ffffffff16021790555050505050505050565b600560049054906101000a90047bffffffffffffffffffffffffffffffffffffffffffffffffffffffff1681565b600260009054906101000a900473ffffffffffffffffffffffffffffffffffffffff1681565b60008084116111d2576040517f08c379a0000000000000000000000000000000000000000000000000000000008152600401808060200182810382526024815260200180611c776024913960400191505060405180910390fd5b6000831180156111e25750600082115b611237576040517f08c379a0000000000000000000000000000000000000000000000000000000008152600401808060200182810382526027815260200180611bd76027913960400191505060405180910390fd5b8261124b838661141690919063ffffffff16565b8161125257fe5b0490509392505050565b6201518081565b73e2f197885abe8ec7c866cff76605fd06d457621881565b600560009054906101000a900463ffffffff1681565b606060028251101561130b576040517f08c379a000000000000000000000000000000000000000000000000000000000815260040180806020018281038252601d8152602001807f556e6973776170563248656c7065723a20494e56414c49445f5041544800000081525060200191505060405180910390fd5b815160405190808252806020026020018201604052801561133b5781602001602082028038833980820191505090505b509050828160008151811061134c57fe5b60200260200101818152505060005b60018351038110156113e95760008061139d85848151811061137957fe5b602002602001015186600186018151811061139057fe5b6020026020010151611524565b915091506113bf8484815181106113b057fe5b6020026020010151838361070c565b8460018501815181106113ce57fe5b6020026020010181815250505050808060010191505061135b565b5092915050565b600160009054906101000a900473ffffffffffffffffffffffffffffffffffffffff1681565b6000808314156114295760009050611496565b600082840290508284828161143a57fe5b0414611491576040517f08c379a0000000000000000000000000000000000000000000000000000000008152600401808060200182810382526021815260200180611c9b6021913960400191505060405180910390fd5b809150505b92915050565b60008082840190508381101561151a576040517f08c379a000000000000000000000000000000000000000000000000000000000815260040180806020018281038252601b8152602001807f536166654d6174683a206164646974696f6e206f766572666c6f77000000000081525060200191505060405180910390fd5b8091505092915050565b60008060006115338585611831565b50905060008061154387876119a8565b73ffffffffffffffffffffffffffffffffffffffff16630902f1ac6040518163ffffffff1660e01b815260040160606040518083038186803b15801561158857600080fd5b505afa15801561159c573d6000803e3d6000fd5b505050506040513d60608110156115b257600080fd5b81019080805190602001909291908051906020019092919080519060200190929190505050506dffffffffffffffffffffffffffff1691506dffffffffffffffffffffffffffff1691508273ffffffffffffffffffffffffffffffffffffffff168773ffffffffffffffffffffffffffffffffffffffff1614611636578082611639565b81815b80955081965050505050509250929050565b6000808214806116a45750827bffffffffffffffffffffffffffffffffffffffffffffffffffffffff168283857bffffffffffffffffffffffffffffffffffffffffffffffffffffffff1602925082816116a157fe5b04145b611716576040517f08c379a000000000000000000000000000000000000000000000000000000000815260040180806020018281038252600e8152602001807f75716d756c2d6f766572666c6f7700000000000000000000000000000000000081525060200191505060405180910390fd5b92915050565b60006e0100000000000000000000000000007bffffffffffffffffffffffffffffffffffffffffffffffffffffffff16828161175457fe5b049050919050565b600061179e83836040518060400160405280601e81526020017f536166654d6174683a207375627472616374696f6e206f766572666c6f770000815250611b16565b905092915050565b60006e010000000000000000000000000000826dffffffffffffffffffffffffffff16029050919050565b6000816dffffffffffffffffffffffffffff167bffffffffffffffffffffffffffffffffffffffffffffffffffffffff16837bffffffffffffffffffffffffffffffffffffffffffffffffffffffff168161182857fe5b04905092915050565b6000808273ffffffffffffffffffffffffffffffffffffffff168473ffffffffffffffffffffffffffffffffffffffff1614156118b9576040517f08c379a0000000000000000000000000000000000000000000000000000000008152600401808060200182810382526024815260200180611c296024913960400191505060405180910390fd5b8273ffffffffffffffffffffffffffffffffffffffff168473ffffffffffffffffffffffffffffffffffffffff16106118f35782846118f6565b83835b8092508193505050600073ffffffffffffffffffffffffffffffffffffffff168273ffffffffffffffffffffffffffffffffffffffff1614156119a1576040517f08c379a000000000000000000000000000000000000000000000000000000000815260040180806020018281038252601d8152602001807f556e6973776170563248656c7065723a205a45524f5f4144445245535300000081525060200191505060405180910390fd5b9250929050565b60008060006119b78585611831565b9150915073e2f197885abe8ec7c866cff76605fd06d45762188282604051602001808373ffffffffffffffffffffffffffffffffffffffff1673ffffffffffffffffffffffffffffffffffffffff1660601b81526014018273ffffffffffffffffffffffffffffffffffffffff1673ffffffffffffffffffffffffffffffffffffffff1660601b8152601401925050506040516020818303038152906040528051906020012060405160200180807fff000000000000000000000000000000000000000000000000000000000000008152506001018373ffffffffffffffffffffffffffffffffffffffff1673ffffffffffffffffffffffffffffffffffffffff1660601b8152601401828152602001807f0b77fb54a078d9399fa29cac94f5b35b9f11611b456ab507c7f46754712b642b815250602001925050506040516020818303038152906040528051906020012060001c9250505092915050565b6000838311158290611bc3576040517f08c379a00000000000000000000000000000000000000000000000000000000081526004018080602001828103825283818151815260200191508051906020019080838360005b83811015611b88578082015181840152602081019050611b6d565b50505050905090810190601f168015611bb55780820380516001836020036101000a031916815260200191505b509250505060405180910390fd5b506000838503905080915050939250505056fe556e6973776170563248656c7065723a20494e53554646494349454e545f4c4951554944495459556e6973776170563248656c7065723a20494e53554646494349454e545f4f55545055545f414d4f554e54556e6973776170563248656c7065723a204944454e544943414c5f414444524553534553556e6973776170563248656c7065723a20494e53554646494349454e545f494e5055545f414d4f554e54556e6973776170563248656c7065723a20494e53554646494349454e545f414d4f554e54536166654d6174683a206d756c7469706c69636174696f6e206f766572666c6f77a265627a7a723158208d3276538b28e45d101771eaed39202944ca01d50d05c5930fb2f9d15777f4fa64736f6c63430005100032556e6973776170563248656c7065723a204944454e544943414c5f414444524553534553",
  "source": "pragma solidity =0.5.16;\n\nimport './UniswapV2Library.sol';\nimport './libraries/UQ112x112.sol';\n\ncontract ExampleOracleSimple is UniswapV2Library {\n    using UQ112x112 for uint224;\n\n    uint public constant PERIOD = 24 hours;\n    address public token0;\n    address public token1;\n    IUniswapV2Pair public pair;\n\n    uint    public price0CumulativeLast;\n    uint    public price1CumulativeLast;\n    uint32  public blockTimestampLast;\n    uint224 public price0Average;\n    uint224 public price1Average;\n\n    constructor(address tokenA, address tokenB) public {\n        (token0, token1) = sortTokens(tokenA, tokenB);\n        pair = IUniswapV2Pair(pairFor(token0, token1));\n        price0CumulativeLast = pair.price0CumulativeLast(); // fetch the current accumulated price value (1 / 0)\n        price1CumulativeLast = pair.price1CumulativeLast(); // fetch the current accumulated price value (0 / 1)\n        uint112 reserve0;\n        uint112 reserve1;\n        (reserve0, reserve1, blockTimestampLast) = pair.getReserves();\n        assert(reserve0 != 0 && reserve1 != 0); // ensure that there's liquidity in the pair\n        assert(blockTimestampLast != 0); // ensure there's a price history\n    }\n\n    function update() external {\n        uint32 blockTimestamp = uint32(block.timestamp % 2**32);\n        uint32 timeElapsed = blockTimestamp - blockTimestampLast; // overflow is desired\n        assert(timeElapsed >= PERIOD); // ensure that at least one full period has passed since the last update\n\n        uint price0Cumulative = pair.price0CumulativeLast();\n        uint price1Cumulative = pair.price1CumulativeLast();\n\n        // if time has elapsed since the last update on the pair, mock the accumulated price values\n        (uint112 reserve0, uint112 reserve1, uint32 blockTimestampLastFromPair) = pair.getReserves();\n        assert(reserve0 != 0 && reserve1 != 0); // ensure that there's still liquidity in the pair\n        if (blockTimestampLastFromPair != blockTimestamp) {\n            price0Cumulative += uint(UQ112x112.encode(reserve1).uqdiv(reserve0)) * timeElapsed; // counterfactual\n            price1Cumulative += uint(UQ112x112.encode(reserve0).uqdiv(reserve1)) * timeElapsed; // counterfactual\n        }\n\n        // - overflow is desired, / never overflows, casting never truncates\n        price0Average = uint224((price0Cumulative - price0CumulativeLast) / timeElapsed);\n        price1Average = uint224((price1Cumulative - price1CumulativeLast) / timeElapsed);\n\n        price0CumulativeLast = price0Cumulative;\n        price1CumulativeLast = price1Cumulative;\n        blockTimestampLast = blockTimestamp;\n    }\n\n    function consult(address token, uint amountIn) external view returns (uint amountOut) {\n        if (token == token0) {\n            amountOut = UQ112x112.decode(price0Average.uqmul(amountIn));\n        } else {\n            assert(token == token1);\n            amountOut = UQ112x112.decode(price1Average.uqmul(amountIn));\n        }\n    }\n}\n",
  "sourcePath": "/home/guest/blockchain/MoneyLegos/contracts/ExampleOracleSimple.sol",
  "compiler": {
    "name": "solc",
    "version": "0.5.16+commit.9c3226ce.Emscripten.clang"
  },
  "schemaVersion": "3.0.23",
  "updatedAt": "2020-04-07T10:36:24.567Z",
  "devdoc": {
    "methods": {}
  },
  "userdoc": {
    "methods": {}
  }
}