{
  "contractName": "UniswapV2Migrator",
  "abi": [
    {
      "inputs": [
        {
          "internalType": "address",
          "name": "_factoryV1",
          "type": "address"
        }
      ],
      "payable": false,
      "stateMutability": "nonpayable",
      "type": "constructor"
    },
    {
      "payable": true,
      "stateMutability": "payable",
      "type": "fallback"
    },
    {
      "constant": true,
      "inputs": [],
      "name": "factoryV1",
      "outputs": [
        {
          "internalType": "contract IUniswapV1Factory",
          "name": "",
          "type": "address"
        }
      ],
      "payable": false,
      "stateMutability": "view",
      "type": "function"
    },
    {
      "constant": true,
      "inputs": [],
      "name": "router",
      "outputs": [
        {
          "internalType": "contract IUniswapV2Router01",
          "name": "",
          "type": "address"
        }
      ],
      "payable": false,
      "stateMutability": "view",
      "type": "function"
    },
    {
      "constant": false,
      "inputs": [
        {
          "internalType": "address",
          "name": "token",
          "type": "address"
        },
        {
          "internalType": "uint256",
          "name": "amountTokenMin",
          "type": "uint256"
        },
        {
          "internalType": "uint256",
          "name": "amountETHMin",
          "type": "uint256"
        },
        {
          "internalType": "address",
          "name": "to",
          "type": "address"
        },
        {
          "internalType": "uint256",
          "name": "deadline",
          "type": "uint256"
        }
      ],
      "name": "migrate",
      "outputs": [],
      "payable": false,
      "stateMutability": "nonpayable",
      "type": "function"
    }
  ],
  "bytecode": "0x608060405234801561001057600080fd5b50604051610e0b380380610e0b8339818101604052602081101561003357600080fd5b8101908080519060200190929190505050806000806101000a81548173ffffffffffffffffffffffffffffffffffffffff021916908373ffffffffffffffffffffffffffffffffffffffff16021790555050610d77806100946000396000f3fe6080604052600436106100345760003560e01c80633957f45314610036578063b7df1d251461008d578063f887ea401461011c575b005b34801561004257600080fd5b5061004b610173565b604051808273ffffffffffffffffffffffffffffffffffffffff1673ffffffffffffffffffffffffffffffffffffffff16815260200191505060405180910390f35b34801561009957600080fd5b5061011a600480360360a08110156100b057600080fd5b81019080803573ffffffffffffffffffffffffffffffffffffffff1690602001909291908035906020019092919080359060200190929190803573ffffffffffffffffffffffffffffffffffffffff16906020019092919080359060200190929190505050610198565b005b34801561012857600080fd5b5061013161072b565b604051808273ffffffffffffffffffffffffffffffffffffffff1673ffffffffffffffffffffffffffffffffffffffff16815260200191505060405180910390f35b6000809054906101000a900473ffffffffffffffffffffffffffffffffffffffff1681565b60008060009054906101000a900473ffffffffffffffffffffffffffffffffffffffff1673ffffffffffffffffffffffffffffffffffffffff166306f2bf62876040518263ffffffff1660e01b8152600401808273ffffffffffffffffffffffffffffffffffffffff1673ffffffffffffffffffffffffffffffffffffffff16815260200191505060206040518083038186803b15801561023857600080fd5b505afa15801561024c573d6000803e3d6000fd5b505050506040513d602081101561026257600080fd5b8101908080519060200190929190505050905060008173ffffffffffffffffffffffffffffffffffffffff166370a08231336040518263ffffffff1660e01b8152600401808273ffffffffffffffffffffffffffffffffffffffff1673ffffffffffffffffffffffffffffffffffffffff16815260200191505060206040518083038186803b1580156102f457600080fd5b505afa158015610308573d6000803e3d6000fd5b505050506040513d602081101561031e57600080fd5b810190808051906020019092919050505090508173ffffffffffffffffffffffffffffffffffffffff166323b872dd3330846040518463ffffffff1660e01b8152600401808473ffffffffffffffffffffffffffffffffffffffff1673ffffffffffffffffffffffffffffffffffffffff1681526020018373ffffffffffffffffffffffffffffffffffffffff1673ffffffffffffffffffffffffffffffffffffffff1681526020018281526020019350505050602060405180830381600087803b1580156103ec57600080fd5b505af1158015610400573d6000803e3d6000fd5b505050506040513d602081101561041657600080fd5b8101908080519060200190929190505050610499576040517f08c379a00000000000000000000000000000000000000000000000000000000081526004018080602001828103825260148152602001807f5452414e534645525f46524f4d5f4641494c454400000000000000000000000081525060200191505060405180910390fd5b6000808373ffffffffffffffffffffffffffffffffffffffff1663f88bf15a846001807fffffffffffffffffffffffffffffffffffffffffffffffffffffffffffffffff6040518563ffffffff1660e01b8152600401808581526020018481526020018381526020018281526020019450505050506040805180830381600087803b15801561052757600080fd5b505af115801561053b573d6000803e3d6000fd5b505050506040513d604081101561055157600080fd5b8101908080519060200190929190805190602001909291905050509150915061058f897384e924c5e04438d2c1df1a981f7e7104952e6de183610743565b6000807384e924c5e04438d2c1df1a981f7e7104952e6de173ffffffffffffffffffffffffffffffffffffffff1663f305d719858d868e8e8e8e6040518863ffffffff1660e01b8152600401808773ffffffffffffffffffffffffffffffffffffffff1673ffffffffffffffffffffffffffffffffffffffff1681526020018681526020018581526020018481526020018373ffffffffffffffffffffffffffffffffffffffff1673ffffffffffffffffffffffffffffffffffffffff16815260200182815260200196505050505050506060604051808303818588803b15801561067957600080fd5b505af115801561068d573d6000803e3d6000fd5b50505050506040513d60608110156106a457600080fd5b81019080805190602001909291908051906020019092919080519060200190929190505050509150915081831115610708576106f68b7384e924c5e04438d2c1df1a981f7e7104952e6de16000610743565b6107038b33848603610990565b61071e565b8084111561071d5761071c33828603610bdd565b5b5b5050505050505050505050565b7384e924c5e04438d2c1df1a981f7e7104952e6de181565b600060608473ffffffffffffffffffffffffffffffffffffffff166040518060400160405280601881526020017f617070726f766528616464726573732c75696e74323536290000000000000000815250805190602001208585604051602401808373ffffffffffffffffffffffffffffffffffffffff1673ffffffffffffffffffffffffffffffffffffffff16815260200182815260200192505050604051602081830303815290604052907bffffffffffffffffffffffffffffffffffffffffffffffffffffffff19166020820180517bffffffffffffffffffffffffffffffffffffffffffffffffffffffff83818316178352505050506040518082805190602001908083835b60208310610870578051825260208201915060208101905060208303925061084d565b6001836020036101000a0380198251168184511680821785525050505050509050019150506000604051808303816000865af19150503d80600081146108d2576040519150601f19603f3d011682016040523d82523d6000602084013e6108d7565b606091505b50915091508180156109175750600081511480610916575080806020019051602081101561090457600080fd5b81019080805190602001909291905050505b5b610989576040517f08c379a000000000000000000000000000000000000000000000000000000000815260040180806020018281038252600e8152602001807f415050524f56455f4641494c454400000000000000000000000000000000000081525060200191505060405180910390fd5b5050505050565b600060608473ffffffffffffffffffffffffffffffffffffffff166040518060400160405280601981526020017f7472616e7366657228616464726573732c75696e743235362900000000000000815250805190602001208585604051602401808373ffffffffffffffffffffffffffffffffffffffff1673ffffffffffffffffffffffffffffffffffffffff16815260200182815260200192505050604051602081830303815290604052907bffffffffffffffffffffffffffffffffffffffffffffffffffffffff19166020820180517bffffffffffffffffffffffffffffffffffffffffffffffffffffffff83818316178352505050506040518082805190602001908083835b60208310610abd5780518252602082019150602081019050602083039250610a9a565b6001836020036101000a0380198251168184511680821785525050505050509050019150506000604051808303816000865af19150503d8060008114610b1f576040519150601f19603f3d011682016040523d82523d6000602084013e610b24565b606091505b5091509150818015610b645750600081511480610b635750808060200190516020811015610b5157600080fd5b81019080805190602001909291905050505b5b610bd6576040517f08c379a000000000000000000000000000000000000000000000000000000000815260040180806020018281038252600f8152602001807f5452414e534645525f4641494c4544000000000000000000000000000000000081525060200191505060405180910390fd5b5050505050565b60008273ffffffffffffffffffffffffffffffffffffffff168260006040519080825280601f01601f191660200182016040528015610c2b5781602001600182028038833980820191505090505b506040518082805190602001908083835b60208310610c5f5780518252602082019150602081019050602083039250610c3c565b6001836020036101000a03801982511681845116808217855250505050505090500191505060006040518083038185875af1925050503d8060008114610cc1576040519150601f19603f3d011682016040523d82523d6000602084013e610cc6565b606091505b5050905080610d3d576040517f08c379a00000000000000000000000000000000000000000000000000000000081526004018080602001828103825260138152602001807f4554485f5452414e534645525f4641494c45440000000000000000000000000081525060200191505060405180910390fd5b50505056fea265627a7a72315820c736913a236f30d768e732070e7a9ddeb740846d5f7e16ab2c7d1f96194c15c964736f6c63430005100032",
  "source": "pragma solidity =0.5.16;\n\nimport './interfaces/IUniswapV2Migrator.sol';\nimport './interfaces/V1/IUniswapV1Factory.sol';\nimport './interfaces/V1/IUniswapV1Exchange.sol';\nimport './interfaces/IUniswapV2Router01.sol';\n\ncontract UniswapV2Migrator is IUniswapV2Migrator {\n    bytes4 private constant SELECTOR_APPROVE = bytes4(keccak256(bytes('approve(address,uint256)')));\n    bytes4 private constant SELECTOR_TRANSFER = bytes4(keccak256(bytes('transfer(address,uint256)')));\n\n    IUniswapV1Factory public factoryV1;\n    // router address is identical across mainnet and testnets but differs between testing and deployed environments\n    IUniswapV2Router01 public constant router = IUniswapV2Router01(0x84e924C5E04438D2c1Df1A981f7E7104952e6de1);\n\n    function _safeApprove(address token, address to, uint value) private {\n        (bool success, bytes memory data) = token.call(abi.encodeWithSelector(SELECTOR_APPROVE, to, value));\n        require(success && (data.length == 0 || abi.decode(data, (bool))), 'APPROVE_FAILED');\n    }\n\n    function _safeTransfer(address token, address to, uint value) private {\n        (bool success, bytes memory data) = token.call(abi.encodeWithSelector(SELECTOR_TRANSFER, to, value));\n        require(success && (data.length == 0 || abi.decode(data, (bool))), 'TRANSFER_FAILED');\n    }\n\n    function _safeTransferETH(address to, uint value) private {\n        (bool success,) = to.call.value(value)(new bytes(0));\n        require(success, 'ETH_TRANSFER_FAILED');\n    }\n\n    constructor(address _factoryV1) public {\n        factoryV1 = IUniswapV1Factory(_factoryV1);\n    }\n\n    // needs to accept ETH from any v1 exchange and the router. ideally this could be enforced, as in the router,\n    // but it's not possible because it requires a call to the v1 factory, which takes too much gas\n    function() external payable {}\n\n    function migrate(address token, uint amountTokenMin, uint amountETHMin, address to, uint deadline) external {\n        IUniswapV1Exchange exchangeV1 = IUniswapV1Exchange(factoryV1.getExchange(token));\n        uint liquidityV1 = exchangeV1.balanceOf(msg.sender);\n        require(exchangeV1.transferFrom(msg.sender, address(this), liquidityV1), 'TRANSFER_FROM_FAILED');\n        (uint amountETHV1, uint amountTokenV1) = exchangeV1.removeLiquidity(liquidityV1, 1, 1, uint(-1));\n        _safeApprove(token, address(router), amountTokenV1);\n        (uint amountTokenV2, uint amountETHV2,) = router.addLiquidityETH.value(amountETHV1)(\n            token,\n            amountTokenV1,\n            amountTokenMin,\n            amountETHMin,\n            to,\n            deadline\n        );\n        if (amountTokenV1 > amountTokenV2) {\n            _safeApprove(token, address(router), 0); // be a good blockchain citizen, reset allowance to 0\n            _safeTransfer(token, msg.sender, amountTokenV1 - amountTokenV2);\n        } else if (amountETHV1 > amountETHV2) {\n            // addLiquidityETH guarantees that all of amountETHV1 or amountTokenV1 will be used, hence this else is safe\n            _safeTransferETH(msg.sender, amountETHV1 - amountETHV2);\n        }\n    }\n}\n",
  "sourcePath": "/home/guest/blockchain/MoneyLegos/contracts/UniswapV2Migrator.sol",
  "compiler": {
    "name": "solc",
    "version": "0.5.16+commit.9c3226ce.Emscripten.clang"
  },
  "schemaVersion": "3.0.23",
  "updatedAt": "2020-04-07T10:36:24.585Z",
  "devdoc": {
    "methods": {}
  },
  "userdoc": {
    "methods": {}
  }
}