{
  "contractName": "UniswapV2Router01Gaseless",
  "abi": [
    {
      "inputs": [
        {
          "internalType": "address",
          "name": "_WETH",
          "type": "address"
        }
      ],
      "payable": false,
      "stateMutability": "nonpayable",
      "type": "constructor"
    },
    {
      "anonymous": false,
      "inputs": [
        {
          "indexed": false,
          "internalType": "address",
          "name": "userAddress",
          "type": "address"
        },
        {
          "indexed": false,
          "internalType": "address payable",
          "name": "relayerAddress",
          "type": "address"
        },
        {
          "indexed": false,
          "internalType": "bytes",
          "name": "functionSignature",
          "type": "bytes"
        }
      ],
      "name": "MetaTransactionExecuted",
      "type": "event"
    },
    {
      "payable": true,
      "stateMutability": "payable",
      "type": "fallback"
    },
    {
      "constant": true,
      "inputs": [],
      "name": "WETH",
      "outputs": [
        {
          "internalType": "contract IWETH",
          "name": "",
          "type": "address"
        }
      ],
      "payable": false,
      "stateMutability": "view",
      "type": "function"
    },
    {
      "constant": false,
      "inputs": [
        {
          "internalType": "address",
          "name": "userAddress",
          "type": "address"
        },
        {
          "internalType": "bytes",
          "name": "functionSignature",
          "type": "bytes"
        },
        {
          "internalType": "bytes32",
          "name": "sigR",
          "type": "bytes32"
        },
        {
          "internalType": "bytes32",
          "name": "sigS",
          "type": "bytes32"
        },
        {
          "internalType": "uint8",
          "name": "sigV",
          "type": "uint8"
        }
      ],
      "name": "executeMetaTransaction",
      "outputs": [
        {
          "internalType": "bytes",
          "name": "",
          "type": "bytes"
        }
      ],
      "payable": true,
      "stateMutability": "payable",
      "type": "function"
    },
    {
      "constant": true,
      "inputs": [],
      "name": "factory",
      "outputs": [
        {
          "internalType": "contract IUniswapV2Factory",
          "name": "",
          "type": "address"
        }
      ],
      "payable": false,
      "stateMutability": "view",
      "type": "function"
    },
    {
      "constant": true,
      "inputs": [
        {
          "internalType": "uint256",
          "name": "amountOut",
          "type": "uint256"
        },
        {
          "internalType": "uint256",
          "name": "reserveIn",
          "type": "uint256"
        },
        {
          "internalType": "uint256",
          "name": "reserveOut",
          "type": "uint256"
        }
      ],
      "name": "getAmountIn",
      "outputs": [
        {
          "internalType": "uint256",
          "name": "amountIn",
          "type": "uint256"
        }
      ],
      "payable": false,
      "stateMutability": "pure",
      "type": "function"
    },
    {
      "constant": true,
      "inputs": [
        {
          "internalType": "uint256",
          "name": "amountIn",
          "type": "uint256"
        },
        {
          "internalType": "uint256",
          "name": "reserveIn",
          "type": "uint256"
        },
        {
          "internalType": "uint256",
          "name": "reserveOut",
          "type": "uint256"
        }
      ],
      "name": "getAmountOut",
      "outputs": [
        {
          "internalType": "uint256",
          "name": "amountOut",
          "type": "uint256"
        }
      ],
      "payable": false,
      "stateMutability": "pure",
      "type": "function"
    },
    {
      "constant": true,
      "inputs": [
        {
          "internalType": "uint256",
          "name": "amountOut",
          "type": "uint256"
        },
        {
          "internalType": "address[]",
          "name": "path",
          "type": "address[]"
        }
      ],
      "name": "getAmountsIn",
      "outputs": [
        {
          "internalType": "uint256[]",
          "name": "amounts",
          "type": "uint256[]"
        }
      ],
      "payable": false,
      "stateMutability": "view",
      "type": "function"
    },
    {
      "constant": true,
      "inputs": [
        {
          "internalType": "uint256",
          "name": "amountIn",
          "type": "uint256"
        },
        {
          "internalType": "address[]",
          "name": "path",
          "type": "address[]"
        }
      ],
      "name": "getAmountsOut",
      "outputs": [
        {
          "internalType": "uint256[]",
          "name": "amounts",
          "type": "uint256[]"
        }
      ],
      "payable": false,
      "stateMutability": "view",
      "type": "function"
    },
    {
      "constant": true,
      "inputs": [
        {
          "internalType": "address",
          "name": "user",
          "type": "address"
        }
      ],
      "name": "getNonce",
      "outputs": [
        {
          "internalType": "uint256",
          "name": "nonce",
          "type": "uint256"
        }
      ],
      "payable": false,
      "stateMutability": "view",
      "type": "function"
    },
    {
      "constant": true,
      "inputs": [
        {
          "internalType": "uint256",
          "name": "amountA",
          "type": "uint256"
        },
        {
          "internalType": "uint256",
          "name": "reserveA",
          "type": "uint256"
        },
        {
          "internalType": "uint256",
          "name": "reserveB",
          "type": "uint256"
        }
      ],
      "name": "quote",
      "outputs": [
        {
          "internalType": "uint256",
          "name": "amountB",
          "type": "uint256"
        }
      ],
      "payable": false,
      "stateMutability": "pure",
      "type": "function"
    },
    {
      "constant": false,
      "inputs": [
        {
          "internalType": "address",
          "name": "tokenA",
          "type": "address"
        },
        {
          "internalType": "address",
          "name": "tokenB",
          "type": "address"
        },
        {
          "internalType": "uint256",
          "name": "amountADesired",
          "type": "uint256"
        },
        {
          "internalType": "uint256",
          "name": "amountBDesired",
          "type": "uint256"
        },
        {
          "internalType": "uint256",
          "name": "amountAMin",
          "type": "uint256"
        },
        {
          "internalType": "uint256",
          "name": "amountBMin",
          "type": "uint256"
        },
        {
          "internalType": "address",
          "name": "to",
          "type": "address"
        },
        {
          "internalType": "uint256",
          "name": "deadline",
          "type": "uint256"
        }
      ],
      "name": "addLiquidity",
      "outputs": [
        {
          "internalType": "uint256",
          "name": "amountA",
          "type": "uint256"
        },
        {
          "internalType": "uint256",
          "name": "amountB",
          "type": "uint256"
        },
        {
          "internalType": "uint256",
          "name": "liquidity",
          "type": "uint256"
        }
      ],
      "payable": false,
      "stateMutability": "nonpayable",
      "type": "function"
    },
    {
      "constant": false,
      "inputs": [
        {
          "internalType": "address",
          "name": "token",
          "type": "address"
        },
        {
          "internalType": "uint256",
          "name": "amountTokenDesired",
          "type": "uint256"
        },
        {
          "internalType": "uint256",
          "name": "amountTokenMin",
          "type": "uint256"
        },
        {
          "internalType": "uint256",
          "name": "amountETHMin",
          "type": "uint256"
        },
        {
          "internalType": "address",
          "name": "to",
          "type": "address"
        },
        {
          "internalType": "uint256",
          "name": "deadline",
          "type": "uint256"
        }
      ],
      "name": "addLiquidityETH",
      "outputs": [
        {
          "internalType": "uint256",
          "name": "amountToken",
          "type": "uint256"
        },
        {
          "internalType": "uint256",
          "name": "amountETH",
          "type": "uint256"
        },
        {
          "internalType": "uint256",
          "name": "liquidity",
          "type": "uint256"
        }
      ],
      "payable": true,
      "stateMutability": "payable",
      "type": "function"
    },
    {
      "constant": false,
      "inputs": [
        {
          "internalType": "address",
          "name": "tokenA",
          "type": "address"
        },
        {
          "internalType": "address",
          "name": "tokenB",
          "type": "address"
        },
        {
          "internalType": "uint256",
          "name": "liquidity",
          "type": "uint256"
        },
        {
          "internalType": "uint256",
          "name": "amountAMin",
          "type": "uint256"
        },
        {
          "internalType": "uint256",
          "name": "amountBMin",
          "type": "uint256"
        },
        {
          "internalType": "address",
          "name": "to",
          "type": "address"
        },
        {
          "internalType": "uint256",
          "name": "deadline",
          "type": "uint256"
        }
      ],
      "name": "removeLiquidity",
      "outputs": [
        {
          "internalType": "uint256",
          "name": "amountA",
          "type": "uint256"
        },
        {
          "internalType": "uint256",
          "name": "amountB",
          "type": "uint256"
        }
      ],
      "payable": false,
      "stateMutability": "nonpayable",
      "type": "function"
    },
    {
      "constant": false,
      "inputs": [
        {
          "internalType": "address",
          "name": "token",
          "type": "address"
        },
        {
          "internalType": "uint256",
          "name": "liquidity",
          "type": "uint256"
        },
        {
          "internalType": "uint256",
          "name": "amountTokenMin",
          "type": "uint256"
        },
        {
          "internalType": "uint256",
          "name": "amountETHMin",
          "type": "uint256"
        },
        {
          "internalType": "address",
          "name": "to",
          "type": "address"
        },
        {
          "internalType": "uint256",
          "name": "deadline",
          "type": "uint256"
        }
      ],
      "name": "removeLiquidityETH",
      "outputs": [
        {
          "internalType": "uint256",
          "name": "amountToken",
          "type": "uint256"
        },
        {
          "internalType": "uint256",
          "name": "amountETH",
          "type": "uint256"
        }
      ],
      "payable": false,
      "stateMutability": "nonpayable",
      "type": "function"
    },
    {
      "constant": false,
      "inputs": [
        {
          "internalType": "address",
          "name": "tokenA",
          "type": "address"
        },
        {
          "internalType": "address",
          "name": "tokenB",
          "type": "address"
        },
        {
          "internalType": "uint256",
          "name": "liquidity",
          "type": "uint256"
        },
        {
          "internalType": "uint256",
          "name": "amountAMin",
          "type": "uint256"
        },
        {
          "internalType": "uint256",
          "name": "amountBMin",
          "type": "uint256"
        },
        {
          "internalType": "address",
          "name": "to",
          "type": "address"
        },
        {
          "internalType": "uint256",
          "name": "deadline",
          "type": "uint256"
        },
        {
          "internalType": "bool",
          "name": "approveMax",
          "type": "bool"
        },
        {
          "internalType": "uint8",
          "name": "v",
          "type": "uint8"
        },
        {
          "internalType": "bytes32",
          "name": "r",
          "type": "bytes32"
        },
        {
          "internalType": "bytes32",
          "name": "s",
          "type": "bytes32"
        }
      ],
      "name": "removeLiquidityWithPermit",
      "outputs": [
        {
          "internalType": "uint256",
          "name": "amountA",
          "type": "uint256"
        },
        {
          "internalType": "uint256",
          "name": "amountB",
          "type": "uint256"
        }
      ],
      "payable": false,
      "stateMutability": "nonpayable",
      "type": "function"
    },
    {
      "constant": false,
      "inputs": [
        {
          "internalType": "address",
          "name": "token",
          "type": "address"
        },
        {
          "internalType": "uint256",
          "name": "liquidity",
          "type": "uint256"
        },
        {
          "internalType": "uint256",
          "name": "amountTokenMin",
          "type": "uint256"
        },
        {
          "internalType": "uint256",
          "name": "amountETHMin",
          "type": "uint256"
        },
        {
          "internalType": "address",
          "name": "to",
          "type": "address"
        },
        {
          "internalType": "uint256",
          "name": "deadline",
          "type": "uint256"
        },
        {
          "internalType": "bool",
          "name": "approveMax",
          "type": "bool"
        },
        {
          "internalType": "uint8",
          "name": "v",
          "type": "uint8"
        },
        {
          "internalType": "bytes32",
          "name": "r",
          "type": "bytes32"
        },
        {
          "internalType": "bytes32",
          "name": "s",
          "type": "bytes32"
        }
      ],
      "name": "removeLiquidityETHWithPermit",
      "outputs": [
        {
          "internalType": "uint256",
          "name": "amountToken",
          "type": "uint256"
        },
        {
          "internalType": "uint256",
          "name": "amountETH",
          "type": "uint256"
        }
      ],
      "payable": false,
      "stateMutability": "nonpayable",
      "type": "function"
    },
    {
      "constant": false,
      "inputs": [
        {
          "internalType": "uint256",
          "name": "amountIn",
          "type": "uint256"
        },
        {
          "internalType": "uint256",
          "name": "amountOutMin",
          "type": "uint256"
        },
        {
          "internalType": "address[]",
          "name": "path",
          "type": "address[]"
        },
        {
          "internalType": "address",
          "name": "to",
          "type": "address"
        },
        {
          "internalType": "uint256",
          "name": "deadline",
          "type": "uint256"
        }
      ],
      "name": "swapExactTokensForTokens",
      "outputs": [
        {
          "internalType": "uint256[]",
          "name": "amounts",
          "type": "uint256[]"
        }
      ],
      "payable": false,
      "stateMutability": "nonpayable",
      "type": "function"
    },
    {
      "constant": false,
      "inputs": [
        {
          "internalType": "uint256",
          "name": "amountOut",
          "type": "uint256"
        },
        {
          "internalType": "uint256",
          "name": "amountInMax",
          "type": "uint256"
        },
        {
          "internalType": "address[]",
          "name": "path",
          "type": "address[]"
        },
        {
          "internalType": "address",
          "name": "to",
          "type": "address"
        },
        {
          "internalType": "uint256",
          "name": "deadline",
          "type": "uint256"
        }
      ],
      "name": "swapTokensForExactTokens",
      "outputs": [
        {
          "internalType": "uint256[]",
          "name": "amounts",
          "type": "uint256[]"
        }
      ],
      "payable": false,
      "stateMutability": "nonpayable",
      "type": "function"
    },
    {
      "constant": false,
      "inputs": [
        {
          "internalType": "uint256",
          "name": "amountOutMin",
          "type": "uint256"
        },
        {
          "internalType": "address[]",
          "name": "path",
          "type": "address[]"
        },
        {
          "internalType": "address",
          "name": "to",
          "type": "address"
        },
        {
          "internalType": "uint256",
          "name": "deadline",
          "type": "uint256"
        }
      ],
      "name": "swapExactETHForTokens",
      "outputs": [
        {
          "internalType": "uint256[]",
          "name": "amounts",
          "type": "uint256[]"
        }
      ],
      "payable": true,
      "stateMutability": "payable",
      "type": "function"
    },
    {
      "constant": false,
      "inputs": [
        {
          "internalType": "uint256",
          "name": "amountOut",
          "type": "uint256"
        },
        {
          "internalType": "uint256",
          "name": "amountInMax",
          "type": "uint256"
        },
        {
          "internalType": "address[]",
          "name": "path",
          "type": "address[]"
        },
        {
          "internalType": "address",
          "name": "to",
          "type": "address"
        },
        {
          "internalType": "uint256",
          "name": "deadline",
          "type": "uint256"
        }
      ],
      "name": "swapTokensForExactETH",
      "outputs": [
        {
          "internalType": "uint256[]",
          "name": "amounts",
          "type": "uint256[]"
        }
      ],
      "payable": false,
      "stateMutability": "nonpayable",
      "type": "function"
    },
    {
      "constant": false,
      "inputs": [
        {
          "internalType": "uint256",
          "name": "amountIn",
          "type": "uint256"
        },
        {
          "internalType": "uint256",
          "name": "amountOutMin",
          "type": "uint256"
        },
        {
          "internalType": "address[]",
          "name": "path",
          "type": "address[]"
        },
        {
          "internalType": "address",
          "name": "to",
          "type": "address"
        },
        {
          "internalType": "uint256",
          "name": "deadline",
          "type": "uint256"
        }
      ],
      "name": "swapExactTokensForETH",
      "outputs": [
        {
          "internalType": "uint256[]",
          "name": "amounts",
          "type": "uint256[]"
        }
      ],
      "payable": false,
      "stateMutability": "nonpayable",
      "type": "function"
    },
    {
      "constant": false,
      "inputs": [
        {
          "internalType": "uint256",
          "name": "amountOut",
          "type": "uint256"
        },
        {
          "internalType": "address[]",
          "name": "path",
          "type": "address[]"
        },
        {
          "internalType": "address",
          "name": "to",
          "type": "address"
        },
        {
          "internalType": "uint256",
          "name": "deadline",
          "type": "uint256"
        }
      ],
      "name": "swapETHForExactTokens",
      "outputs": [
        {
          "internalType": "uint256[]",
          "name": "amounts",
          "type": "uint256[]"
        }
      ],
      "payable": true,
      "stateMutability": "payable",
      "type": "function"
    }
  ],
  "bytecode": "0x60806040523480156200001157600080fd5b506040516200598738038062005987833981810160405260208110156200003757600080fd5b81019080805190602001909291905050506040518060400160405280601981526020017f556e69737761705632526f757465723031476173656c657373000000000000008152506040518060400160405280600581526020017f312e302e30000000000000000000000000000000000000000000000000000000815250818160405180608001604052806052815260200162005935605291398051906020012082805190602001208280519060200120620000f7620001b860201b60201c565b30604051602001808681526020018581526020018481526020018381526020018273ffffffffffffffffffffffffffffffffffffffff1673ffffffffffffffffffffffffffffffffffffffff16815260200195505050505050604051602081830303815290604052805190602001206000819055505050505080600260006101000a81548173ffffffffffffffffffffffffffffffffffffffff021916908373ffffffffffffffffffffffffffffffffffffffff16021790555050620001c0565b600046905090565b61576580620001d06000396000f3fe60806040526004361061012a5760003560e01c806385f8c259116100ab578063c45a01551161006f578063c45a015514610df8578063d06ca61f14610e4f578063ded9382a14610f73578063e8e3370014611055578063f305d7191461113b578063fb3bdb41146111e95761012a565b806385f8c25914610aee5780638803dbee14610b51578063ad5c464814610c6a578063ad615dec14610cc1578063baa2abde14610d245761012a565b80632195995c116100f25780632195995c146106535780632d0335ab1461075557806338ed1739146107ba5780634a25d94a146108d35780637ff36ab5146109ec5761012a565b806302751cec1461018a578063054d50d41461023e5780630c53c51c146102a157806318cbafe5146104165780631f00ca741461052f575b600260009054906101000a900473ffffffffffffffffffffffffffffffffffffffff1673ffffffffffffffffffffffffffffffffffffffff1661016b6112eb565b73ffffffffffffffffffffffffffffffffffffffff161461018857fe5b005b34801561019657600080fd5b50610221600480360360c08110156101ad57600080fd5b81019080803573ffffffffffffffffffffffffffffffffffffffff169060200190929190803590602001909291908035906020019092919080359060200190929190803573ffffffffffffffffffffffffffffffffffffffff1690602001909291908035906020019092919050505061139a565b604051808381526020018281526020019250505060405180910390f35b34801561024a57600080fd5b5061028b6004803603606081101561026157600080fd5b810190808035906020019092919080359060200190929190803590602001909291905050506114fb565b6040518082815260200191505060405180910390f35b61039b600480360360a08110156102b757600080fd5b81019080803573ffffffffffffffffffffffffffffffffffffffff169060200190929190803590602001906401000000008111156102f457600080fd5b82018360208201111561030657600080fd5b8035906020019184600183028401116401000000008311171561032857600080fd5b91908080601f016020809104026020016040519081016040528093929190818152602001838380828437600081840152601f19601f8201169050808301925050505050505091929192908035906020019092919080359060200190929190803560ff16906020019092919050505061162b565b6040518080602001828103825283818151815260200191508051906020019080838360005b838110156103db5780820151818401526020810190506103c0565b50505050905090810190601f1680156104085780820380516001836020036101000a031916815260200191505b509250505060405180910390f35b34801561042257600080fd5b506104d8600480360360a081101561043957600080fd5b8101908080359060200190929190803590602001909291908035906020019064010000000081111561046a57600080fd5b82018360208201111561047c57600080fd5b8035906020019184602083028401116401000000008311171561049e57600080fd5b9091929391929390803573ffffffffffffffffffffffffffffffffffffffff16906020019092919080359060200190929190505050611ab7565b6040518080602001828103825283818151815260200191508051906020019060200280838360005b8381101561051b578082015181840152602081019050610500565b505050509050019250505060405180910390f35b34801561053b57600080fd5b506105fc6004803603604081101561055257600080fd5b81019080803590602001909291908035906020019064010000000081111561057957600080fd5b82018360208201111561058b57600080fd5b803590602001918460208302840111640100000000831117156105ad57600080fd5b919080806020026020016040519081016040528093929190818152602001838360200280828437600081840152601f19601f820116905080830192505050505050509192919290505050611ea5565b6040518080602001828103825283818151815260200191508051906020019060200280838360005b8381101561063f578082015181840152602081019050610624565b505050509050019250505060405180910390f35b34801561065f57600080fd5b50610738600480360361016081101561067757600080fd5b81019080803573ffffffffffffffffffffffffffffffffffffffff169060200190929190803573ffffffffffffffffffffffffffffffffffffffff169060200190929190803590602001909291908035906020019092919080359060200190929190803573ffffffffffffffffffffffffffffffffffffffff16906020019092919080359060200190929190803515159060200190929190803560ff169060200190929190803590602001909291908035906020019092919050505061200c565b604051808381526020018281526020019250505060405180910390f35b34801561076157600080fd5b506107a46004803603602081101561077857600080fd5b81019080803573ffffffffffffffffffffffffffffffffffffffff169060200190929190505050612177565b6040518082815260200191505060405180910390f35b3480156107c657600080fd5b5061087c600480360360a08110156107dd57600080fd5b8101908080359060200190929190803590602001909291908035906020019064010000000081111561080e57600080fd5b82018360208201111561082057600080fd5b8035906020019184602083028401116401000000008311171561084257600080fd5b9091929391929390803573ffffffffffffffffffffffffffffffffffffffff169060200190929190803590602001909291905050506121c0565b6040518080602001828103825283818151815260200191508051906020019060200280838360005b838110156108bf5780820151818401526020810190506108a4565b505050509050019250505060405180910390f35b3480156108df57600080fd5b50610995600480360360a08110156108f657600080fd5b8101908080359060200190929190803590602001909291908035906020019064010000000081111561092757600080fd5b82018360208201111561093957600080fd5b8035906020019184602083028401116401000000008311171561095b57600080fd5b9091929391929390803573ffffffffffffffffffffffffffffffffffffffff169060200190929190803590602001909291905050506123f8565b6040518080602001828103825283818151815260200191508051906020019060200280838360005b838110156109d85780820151818401526020810190506109bd565b505050509050019250505060405180910390f35b610a9760048036036080811015610a0257600080fd5b810190808035906020019092919080359060200190640100000000811115610a2957600080fd5b820183602082011115610a3b57600080fd5b80359060200191846020830284011164010000000083111715610a5d57600080fd5b9091929391929390803573ffffffffffffffffffffffffffffffffffffffff169060200190929190803590602001909291905050506127e3565b6040518080602001828103825283818151815260200191508051906020019060200280838360005b83811015610ada578082015181840152602081019050610abf565b505050509050019250505060405180910390f35b348015610afa57600080fd5b50610b3b60048036036060811015610b1157600080fd5b81019080803590602001909291908035906020019092919080359060200190929190505050612c4b565b6040518082815260200191505060405180910390f35b348015610b5d57600080fd5b50610c13600480360360a0811015610b7457600080fd5b81019080803590602001909291908035906020019092919080359060200190640100000000811115610ba557600080fd5b820183602082011115610bb757600080fd5b80359060200191846020830284011164010000000083111715610bd957600080fd5b9091929391929390803573ffffffffffffffffffffffffffffffffffffffff16906020019092919080359060200190929190505050612d88565b6040518080602001828103825283818151815260200191508051906020019060200280838360005b83811015610c56578082015181840152602081019050610c3b565b505050509050019250505060405180910390f35b348015610c7657600080fd5b50610c7f612fbd565b604051808273ffffffffffffffffffffffffffffffffffffffff1673ffffffffffffffffffffffffffffffffffffffff16815260200191505060405180910390f35b348015610ccd57600080fd5b50610d0e60048036036060811015610ce457600080fd5b81019080803590602001909291908035906020019092919080359060200190929190505050612fe3565b6040518082815260200191505060405180910390f35b348015610d3057600080fd5b50610ddb600480360360e0811015610d4757600080fd5b81019080803573ffffffffffffffffffffffffffffffffffffffff169060200190929190803573ffffffffffffffffffffffffffffffffffffffff169060200190929190803590602001909291908035906020019092919080359060200190929190803573ffffffffffffffffffffffffffffffffffffffff169060200190929190803590602001909291905050506130c7565b604051808381526020018281526020019250505060405180910390f35b348015610e0457600080fd5b50610e0d61342e565b604051808273ffffffffffffffffffffffffffffffffffffffff1673ffffffffffffffffffffffffffffffffffffffff16815260200191505060405180910390f35b348015610e5b57600080fd5b50610f1c60048036036040811015610e7257600080fd5b810190808035906020019092919080359060200190640100000000811115610e9957600080fd5b820183602082011115610eab57600080fd5b80359060200191846020830284011164010000000083111715610ecd57600080fd5b919080806020026020016040519081016040528093929190818152602001838360200280828437600081840152601f19601f820116905080830192505050505050509192919290505050613446565b6040518080602001828103825283818151815260200191508051906020019060200280838360005b83811015610f5f578082015181840152602081019050610f44565b505050509050019250505060405180910390f35b348015610f7f57600080fd5b506110386004803603610140811015610f9757600080fd5b81019080803573ffffffffffffffffffffffffffffffffffffffff169060200190929190803590602001909291908035906020019092919080359060200190929190803573ffffffffffffffffffffffffffffffffffffffff16906020019092919080359060200190929190803515159060200190929190803560ff16906020019092919080359060200190929190803590602001909291905050506135a5565b604051808381526020018281526020019250505060405180910390f35b34801561106157600080fd5b50611117600480360361010081101561107957600080fd5b81019080803573ffffffffffffffffffffffffffffffffffffffff169060200190929190803573ffffffffffffffffffffffffffffffffffffffff16906020019092919080359060200190929190803590602001909291908035906020019092919080359060200190929190803573ffffffffffffffffffffffffffffffffffffffff16906020019092919080359060200190929190505050613730565b60405180848152602001838152602001828152602001935050505060405180910390f35b6111c5600480360360c081101561115157600080fd5b81019080803573ffffffffffffffffffffffffffffffffffffffff169060200190929190803590602001909291908035906020019092919080359060200190929190803573ffffffffffffffffffffffffffffffffffffffff169060200190929190803590602001909291905050506138c2565b60405180848152602001838152602001828152602001935050505060405180910390f35b611294600480360360808110156111ff57600080fd5b81019080803590602001909291908035906020019064010000000081111561122657600080fd5b82018360208201111561123857600080fd5b8035906020019184602083028401116401000000008311171561125a57600080fd5b9091929391929390803573ffffffffffffffffffffffffffffffffffffffff16906020019092919080359060200190929190505050613c0c565b6040518080602001828103825283818151815260200191508051906020019060200280838360005b838110156112d75780820151818401526020810190506112bc565b505050509050019250505060405180910390f35b60003073ffffffffffffffffffffffffffffffffffffffff163373ffffffffffffffffffffffffffffffffffffffff16141561139357600060606000368080601f016020809104026020016040519081016040528093929190818152602001838380828437600081840152601f19601f8201169050808301925050505050505090506000803690509050601481036028820360003760005192508260601c9350505050611397565b3390505b90565b6000808242811015611414576040517f08c379a00000000000000000000000000000000000000000000000000000000081526004018080602001828103825260188152602001807f556e69737761705632526f757465723a2045585049524544000000000000000081525060200191505060405180910390fd5b61144589600260009054906101000a900473ffffffffffffffffffffffffffffffffffffffff168a8a8a308a6130c7565b80935081945050506114588986856140b5565b600260009054906101000a900473ffffffffffffffffffffffffffffffffffffffff1673ffffffffffffffffffffffffffffffffffffffff16632e1a7d4d836040518263ffffffff1660e01b815260040180828152602001915050600060405180830381600087803b1580156114cd57600080fd5b505af11580156114e1573d6000803e3d6000fd5b505050506114ef8583614302565b50965096945050505050565b6000808411611555576040517f08c379a000000000000000000000000000000000000000000000000000000000815260040180806020018281038252602a8152602001806155e0602a913960400191505060405180910390fd5b6000831180156115655750600082115b6115ba576040517f08c379a00000000000000000000000000000000000000000000000000000000081526004018080602001828103825260278152602001806154dc6027913960400191505060405180910390fd5b60006115d16103e58661444a90919063ffffffff16565b905060006115e8848361444a90919063ffffffff16565b90506000611613836116056103e88961444a90919063ffffffff16565b6144d090919063ffffffff16565b905080828161161e57fe5b0493505050509392505050565b60606116356154a4565b6040518060600160405280600160008a73ffffffffffffffffffffffffffffffffffffffff1673ffffffffffffffffffffffffffffffffffffffff1681526020019081526020016000205481526020018873ffffffffffffffffffffffffffffffffffffffff1681526020018781525090506116b48782878787614558565b611709576040517f08c379a000000000000000000000000000000000000000000000000000000000815260040180806020018281038252602181526020018061564f6021913960400191505060405180910390fd5b600060603073ffffffffffffffffffffffffffffffffffffffff16888a336040516020018084805190602001908083835b6020831061175d578051825260208201915060208101905060208303925061173a565b6001836020036101000a0380198251168184511680821785525050505050509050018373ffffffffffffffffffffffffffffffffffffffff1673ffffffffffffffffffffffffffffffffffffffff1660601b81526014018273ffffffffffffffffffffffffffffffffffffffff1673ffffffffffffffffffffffffffffffffffffffff1660601b815260140193505050506040516020818303038152906040526040518082805190602001908083835b60208310611830578051825260208201915060208101905060208303925061180d565b6001836020036101000a0380198251168184511680821785525050505050509050019150506000604051808303816000865af19150503d8060008114611892576040519150601f19603f3d011682016040523d82523d6000602084013e611897565b606091505b50915091508161190f576040517f08c379a000000000000000000000000000000000000000000000000000000000815260040180806020018281038252601d8152602001807f46756e6374696f6e2063616c6c206e6f74207375636365737366756c6c00000081525060200191505060405180910390fd5b61196160018060008c73ffffffffffffffffffffffffffffffffffffffff1673ffffffffffffffffffffffffffffffffffffffff168152602001908152602001600020546144d090919063ffffffff16565b600160008b73ffffffffffffffffffffffffffffffffffffffff1673ffffffffffffffffffffffffffffffffffffffff168152602001908152602001600020819055507f5845892132946850460bff5a0083f71031bc5bf9aadcd40f1de79423eac9b10b89338a604051808473ffffffffffffffffffffffffffffffffffffffff1673ffffffffffffffffffffffffffffffffffffffff1681526020018373ffffffffffffffffffffffffffffffffffffffff1673ffffffffffffffffffffffffffffffffffffffff16815260200180602001828103825283818151815260200191508051906020019080838360005b83811015611a6c578082015181840152602081019050611a51565b50505050905090810190601f168015611a995780820380516001836020036101000a031916815260200191505b5094505050505060405180910390a180935050505095945050505050565b60608142811015611b30576040517f08c379a00000000000000000000000000000000000000000000000000000000081526004018080602001828103825260188152602001807f556e69737761705632526f757465723a2045585049524544000000000000000081525060200191505060405180910390fd5b600260009054906101000a900473ffffffffffffffffffffffffffffffffffffffff1673ffffffffffffffffffffffffffffffffffffffff16868660018989905003818110611b7b57fe5b9050602002013573ffffffffffffffffffffffffffffffffffffffff1673ffffffffffffffffffffffffffffffffffffffff1614611c21576040517f08c379a000000000000000000000000000000000000000000000000000000000815260040180806020018281038252601d8152602001807f556e69737761705632526f757465723a20494e56414c49445f5041544800000081525060200191505060405180910390fd5b611c6c88878780806020026020016040519081016040528093929190818152602001838360200280828437600081840152601f19601f82011690508083019250505050505050613446565b91508682600184510381518110611c7f57fe5b60200260200101511015611cde576040517f08c379a000000000000000000000000000000000000000000000000000000000815260040180806020018281038252602b815260200180615706602b913960400191505060405180910390fd5b611d8986866000818110611cee57fe5b9050602002013573ffffffffffffffffffffffffffffffffffffffff16611d136112eb565b611d6f89896000818110611d2357fe5b9050602002013573ffffffffffffffffffffffffffffffffffffffff168a8a6001818110611d4d57fe5b9050602002013573ffffffffffffffffffffffffffffffffffffffff1661460a565b85600081518110611d7c57fe5b6020026020010151614778565b611dd582878780806020026020016040519081016040528093929190818152602001838360200280828437600081840152601f19601f82011690508083019250505050505050306149c0565b600260009054906101000a900473ffffffffffffffffffffffffffffffffffffffff1673ffffffffffffffffffffffffffffffffffffffff16632e1a7d4d83600185510381518110611e2357fe5b60200260200101516040518263ffffffff1660e01b815260040180828152602001915050600060405180830381600087803b158015611e6157600080fd5b505af1158015611e75573d6000803e3d6000fd5b50505050611e9a8483600185510381518110611e8d57fe5b6020026020010151614302565b509695505050505050565b6060600282511015611f1f576040517f08c379a000000000000000000000000000000000000000000000000000000000815260040180806020018281038252601d8152602001807f556e6973776170563248656c7065723a20494e56414c49445f5041544800000081525060200191505060405180910390fd5b8151604051908082528060200260200182016040528015611f4f5781602001602082028038833980820191505090505b5090508281600183510381518110611f6357fe5b6020026020010181815250506000600183510390505b600081111561200557600080611fb8856001850381518110611f9757fe5b6020026020010151868581518110611fab57fe5b6020026020010151614c12565b91509150611fda848481518110611fcb57fe5b60200260200101518383612c4b565b846001850381518110611fe957fe5b6020026020010181815250505050808060019003915050611f79565b5092915050565b600080600061201b8e8e61460a565b905060008761202a578c61204c565b7fffffffffffffffffffffffffffffffffffffffffffffffffffffffffffffffff5b90508173ffffffffffffffffffffffffffffffffffffffff1663d505accf6120726112eb565b30848d8c8c8c6040518863ffffffff1660e01b8152600401808873ffffffffffffffffffffffffffffffffffffffff1673ffffffffffffffffffffffffffffffffffffffff1681526020018773ffffffffffffffffffffffffffffffffffffffff1673ffffffffffffffffffffffffffffffffffffffff1681526020018681526020018581526020018460ff1660ff168152602001838152602001828152602001975050505050505050600060405180830381600087803b15801561213657600080fd5b505af115801561214a573d6000803e3d6000fd5b5050505061215d8f8f8f8f8f8f8f6130c7565b809450819550505050509b509b9950505050505050505050565b6000600160008373ffffffffffffffffffffffffffffffffffffffff1673ffffffffffffffffffffffffffffffffffffffff168152602001908152602001600020549050919050565b60608142811015612239576040517f08c379a00000000000000000000000000000000000000000000000000000000081526004018080602001828103825260188152602001807f556e69737761705632526f757465723a2045585049524544000000000000000081525060200191505060405180910390fd5b61228488878780806020026020016040519081016040528093929190818152602001838360200280828437600081840152601f19601f82011690508083019250505050505050613446565b9150868260018451038151811061229757fe5b602002602001015110156122f6576040517f08c379a000000000000000000000000000000000000000000000000000000000815260040180806020018281038252602b815260200180615706602b913960400191505060405180910390fd5b6123a18686600081811061230657fe5b9050602002013573ffffffffffffffffffffffffffffffffffffffff1661232b6112eb565b6123878989600081811061233b57fe5b9050602002013573ffffffffffffffffffffffffffffffffffffffff168a8a600181811061236557fe5b9050602002013573ffffffffffffffffffffffffffffffffffffffff1661460a565b8560008151811061239457fe5b6020026020010151614778565b6123ed82878780806020026020016040519081016040528093929190818152602001838360200280828437600081840152601f19601f82011690508083019250505050505050866149c0565b509695505050505050565b60608142811015612471576040517f08c379a00000000000000000000000000000000000000000000000000000000081526004018080602001828103825260188152602001807f556e69737761705632526f757465723a2045585049524544000000000000000081525060200191505060405180910390fd5b600260009054906101000a900473ffffffffffffffffffffffffffffffffffffffff1673ffffffffffffffffffffffffffffffffffffffff168686600189899050038181106124bc57fe5b9050602002013573ffffffffffffffffffffffffffffffffffffffff1673ffffffffffffffffffffffffffffffffffffffff1614612562576040517f08c379a000000000000000000000000000000000000000000000000000000000815260040180806020018281038252601d8152602001807f556e69737761705632526f757465723a20494e56414c49445f5041544800000081525060200191505060405180910390fd5b6125ad88878780806020026020016040519081016040528093929190818152602001838360200280828437600081840152601f19601f82011690508083019250505050505050611ea5565b915086826000815181106125bd57fe5b6020026020010151111561261c576040517f08c379a00000000000000000000000000000000000000000000000000000000081526004018080602001828103825260278152602001806156956027913960400191505060405180910390fd5b6126c78686600081811061262c57fe5b9050602002013573ffffffffffffffffffffffffffffffffffffffff166126516112eb565b6126ad8989600081811061266157fe5b9050602002013573ffffffffffffffffffffffffffffffffffffffff168a8a600181811061268b57fe5b9050602002013573ffffffffffffffffffffffffffffffffffffffff1661460a565b856000815181106126ba57fe5b6020026020010151614778565b61271382878780806020026020016040519081016040528093929190818152602001838360200280828437600081840152601f19601f82011690508083019250505050505050306149c0565b600260009054906101000a900473ffffffffffffffffffffffffffffffffffffffff1673ffffffffffffffffffffffffffffffffffffffff16632e1a7d4d8360018551038151811061276157fe5b60200260200101516040518263ffffffff1660e01b815260040180828152602001915050600060405180830381600087803b15801561279f57600080fd5b505af11580156127b3573d6000803e3d6000fd5b505050506127d884836001855103815181106127cb57fe5b6020026020010151614302565b509695505050505050565b6060814281101561285c576040517f08c379a00000000000000000000000000000000000000000000000000000000081526004018080602001828103825260188152602001807f556e69737761705632526f757465723a2045585049524544000000000000000081525060200191505060405180910390fd5b600260009054906101000a900473ffffffffffffffffffffffffffffffffffffffff1673ffffffffffffffffffffffffffffffffffffffff16868660008181106128a257fe5b9050602002013573ffffffffffffffffffffffffffffffffffffffff1673ffffffffffffffffffffffffffffffffffffffff1614612948576040517f08c379a000000000000000000000000000000000000000000000000000000000815260040180806020018281038252601d8152602001807f556e69737761705632526f757465723a20494e56414c49445f5041544800000081525060200191505060405180910390fd5b61299334878780806020026020016040519081016040528093929190818152602001838360200280828437600081840152601f19601f82011690508083019250505050505050613446565b915086826001845103815181106129a657fe5b60200260200101511015612a05576040517f08c379a000000000000000000000000000000000000000000000000000000000815260040180806020018281038252602b815260200180615706602b913960400191505060405180910390fd5b600260009054906101000a900473ffffffffffffffffffffffffffffffffffffffff1673ffffffffffffffffffffffffffffffffffffffff1663d0e30db083600081518110612a5057fe5b60200260200101516040518263ffffffff1660e01b81526004016000604051808303818588803b158015612a8357600080fd5b505af1158015612a97573d6000803e3d6000fd5b5050505050600260009054906101000a900473ffffffffffffffffffffffffffffffffffffffff1673ffffffffffffffffffffffffffffffffffffffff1663a9059cbb612b3688886000818110612aea57fe5b9050602002013573ffffffffffffffffffffffffffffffffffffffff1689896001818110612b1457fe5b9050602002013573ffffffffffffffffffffffffffffffffffffffff1661460a565b84600081518110612b4357fe5b60200260200101516040518363ffffffff1660e01b8152600401808373ffffffffffffffffffffffffffffffffffffffff1673ffffffffffffffffffffffffffffffffffffffff16815260200182815260200192505050602060405180830381600087803b158015612bb457600080fd5b505af1158015612bc8573d6000803e3d6000fd5b505050506040513d6020811015612bde57600080fd5b8101908080519060200190929190505050612bf557fe5b612c4182878780806020026020016040519081016040528093929190818152602001838360200280828437600081840152601f19601f82011690508083019250505050505050866149c0565b5095945050505050565b6000808411612ca5576040517f08c379a000000000000000000000000000000000000000000000000000000000815260040180806020018281038252602b815260200180615503602b913960400191505060405180910390fd5b600083118015612cb55750600082115b612d0a576040517f08c379a00000000000000000000000000000000000000000000000000000000081526004018080602001828103825260278152602001806154dc6027913960400191505060405180910390fd5b6000612d336103e8612d25878761444a90919063ffffffff16565b61444a90919063ffffffff16565b90506000612d5e6103e5612d508887614d3990919063ffffffff16565b61444a90919063ffffffff16565b9050612d7d6001828481612d6e57fe5b046144d090919063ffffffff16565b925050509392505050565b60608142811015612e01576040517f08c379a00000000000000000000000000000000000000000000000000000000081526004018080602001828103825260188152602001807f556e69737761705632526f757465723a2045585049524544000000000000000081525060200191505060405180910390fd5b612e4c88878780806020026020016040519081016040528093929190818152602001838360200280828437600081840152601f19601f82011690508083019250505050505050611ea5565b91508682600081518110612e5c57fe5b60200260200101511115612ebb576040517f08c379a00000000000000000000000000000000000000000000000000000000081526004018080602001828103825260278152602001806156956027913960400191505060405180910390fd5b612f6686866000818110612ecb57fe5b9050602002013573ffffffffffffffffffffffffffffffffffffffff16612ef06112eb565b612f4c89896000818110612f0057fe5b9050602002013573ffffffffffffffffffffffffffffffffffffffff168a8a6001818110612f2a57fe5b9050602002013573ffffffffffffffffffffffffffffffffffffffff1661460a565b85600081518110612f5957fe5b6020026020010151614778565b612fb282878780806020026020016040519081016040528093929190818152602001838360200280828437600081840152601f19601f82011690508083019250505050505050866149c0565b509695505050505050565b600260009054906101000a900473ffffffffffffffffffffffffffffffffffffffff1681565b600080841161303d576040517f08c379a000000000000000000000000000000000000000000000000000000000815260040180806020018281038252602481526020018061560a6024913960400191505060405180910390fd5b60008311801561304d5750600082115b6130a2576040517f08c379a00000000000000000000000000000000000000000000000000000000081526004018080602001828103825260278152602001806154dc6027913960400191505060405180910390fd5b826130b6838661444a90919063ffffffff16565b816130bd57fe5b0490509392505050565b6000808242811015613141576040517f08c379a00000000000000000000000000000000000000000000000000000000081526004018080602001828103825260188152602001807f556e69737761705632526f757465723a2045585049524544000000000000000081525060200191505060405180910390fd5b600061314d8b8b61460a565b90508073ffffffffffffffffffffffffffffffffffffffff166323b872dd6131736112eb565b838c6040518463ffffffff1660e01b8152600401808473ffffffffffffffffffffffffffffffffffffffff1673ffffffffffffffffffffffffffffffffffffffff1681526020018373ffffffffffffffffffffffffffffffffffffffff1673ffffffffffffffffffffffffffffffffffffffff1681526020018281526020019350505050602060405180830381600087803b15801561321157600080fd5b505af1158015613225573d6000803e3d6000fd5b505050506040513d602081101561323b57600080fd5b8101908080519060200190929190505050506000808273ffffffffffffffffffffffffffffffffffffffff166389afcb44896040518263ffffffff1660e01b8152600401808273ffffffffffffffffffffffffffffffffffffffff1673ffffffffffffffffffffffffffffffffffffffff1681526020019150506040805180830381600087803b1580156132ce57600080fd5b505af11580156132e2573d6000803e3d6000fd5b505050506040513d60408110156132f857600080fd5b8101908080519060200190929190805190602001909291905050509150915060006133238e8e614d83565b5090508073ffffffffffffffffffffffffffffffffffffffff168e73ffffffffffffffffffffffffffffffffffffffff1614613360578183613363565b82825b80975081985050508a8710156133c4576040517f08c379a00000000000000000000000000000000000000000000000000000000081526004018080602001828103825260268152602001806156e06026913960400191505060405180910390fd5b8986101561341d576040517f08c379a00000000000000000000000000000000000000000000000000000000081526004018080602001828103825260268152602001806155ba6026913960400191505060405180910390fd5b505050505097509795505050505050565b73e2f197885abe8ec7c866cff76605fd06d457621881565b60606002825110156134c0576040517f08c379a000000000000000000000000000000000000000000000000000000000815260040180806020018281038252601d8152602001807f556e6973776170563248656c7065723a20494e56414c49445f5041544800000081525060200191505060405180910390fd5b81516040519080825280602002602001820160405280156134f05781602001602082028038833980820191505090505b509050828160008151811061350157fe5b60200260200101818152505060005b600183510381101561359e5760008061355285848151811061352e57fe5b602002602001015186600186018151811061354557fe5b6020026020010151614c12565b9150915061357484848151811061356557fe5b602002602001015183836114fb565b84600185018151811061358357fe5b60200260200101818152505050508080600101915050613510565b5092915050565b60008060006135d68d600260009054906101000a900473ffffffffffffffffffffffffffffffffffffffff1661460a565b90506000876135e5578c613607565b7fffffffffffffffffffffffffffffffffffffffffffffffffffffffffffffffff5b90508173ffffffffffffffffffffffffffffffffffffffff1663d505accf61362d6112eb565b30848d8c8c8c6040518863ffffffff1660e01b8152600401808873ffffffffffffffffffffffffffffffffffffffff1673ffffffffffffffffffffffffffffffffffffffff1681526020018773ffffffffffffffffffffffffffffffffffffffff1673ffffffffffffffffffffffffffffffffffffffff1681526020018681526020018581526020018460ff1660ff168152602001838152602001828152602001975050505050505050600060405180830381600087803b1580156136f157600080fd5b505af1158015613705573d6000803e3d6000fd5b505050506137178e8e8e8e8e8e61139a565b809450819550505050509a509a98505050505050505050565b600080600083428110156137ac576040517f08c379a00000000000000000000000000000000000000000000000000000000081526004018080602001828103825260188152602001807f556e69737761705632526f757465723a2045585049524544000000000000000081525060200191505060405180910390fd5b6137ba8c8c8c8c8c8c614efa565b809450819550505060006137ce8d8d61460a565b90506137e38d6137dc6112eb565b8388614778565b6137f68c6137ef6112eb565b8387614778565b8073ffffffffffffffffffffffffffffffffffffffff16636a627842886040518263ffffffff1660e01b8152600401808273ffffffffffffffffffffffffffffffffffffffff1673ffffffffffffffffffffffffffffffffffffffff168152602001915050602060405180830381600087803b15801561387557600080fd5b505af1158015613889573d6000803e3d6000fd5b505050506040513d602081101561389f57600080fd5b810190808051906020019092919050505092505050985098509895505050505050565b6000806000834281101561393e576040517f08c379a00000000000000000000000000000000000000000000000000000000081526004018080602001828103825260188152602001807f556e69737761705632526f757465723a2045585049524544000000000000000081525060200191505060405180910390fd5b61396e8a600260009054906101000a900473ffffffffffffffffffffffffffffffffffffffff168b348c8c614efa565b809450819550505060006139a48b600260009054906101000a900473ffffffffffffffffffffffffffffffffffffffff1661460a565b90506139b98b6139b26112eb565b8388614778565b600260009054906101000a900473ffffffffffffffffffffffffffffffffffffffff1673ffffffffffffffffffffffffffffffffffffffff1663d0e30db0856040518263ffffffff1660e01b81526004016000604051808303818588803b158015613a2357600080fd5b505af1158015613a37573d6000803e3d6000fd5b5050505050600260009054906101000a900473ffffffffffffffffffffffffffffffffffffffff1673ffffffffffffffffffffffffffffffffffffffff1663a9059cbb82866040518363ffffffff1660e01b8152600401808373ffffffffffffffffffffffffffffffffffffffff1673ffffffffffffffffffffffffffffffffffffffff16815260200182815260200192505050602060405180830381600087803b158015613ae557600080fd5b505af1158015613af9573d6000803e3d6000fd5b505050506040513d6020811015613b0f57600080fd5b8101908080519060200190929190505050613b2657fe5b8073ffffffffffffffffffffffffffffffffffffffff16636a627842886040518263ffffffff1660e01b8152600401808273ffffffffffffffffffffffffffffffffffffffff1673ffffffffffffffffffffffffffffffffffffffff168152602001915050602060405180830381600087803b158015613ba557600080fd5b505af1158015613bb9573d6000803e3d6000fd5b505050506040513d6020811015613bcf57600080fd5b8101908080519060200190929190505050925083341115613bfe57613bfd613bf56112eb565b853403614302565b5b505096509650969350505050565b60608142811015613c85576040517f08c379a00000000000000000000000000000000000000000000000000000000081526004018080602001828103825260188152602001807f556e69737761705632526f757465723a2045585049524544000000000000000081525060200191505060405180910390fd5b600260009054906101000a900473ffffffffffffffffffffffffffffffffffffffff1673ffffffffffffffffffffffffffffffffffffffff1686866000818110613ccb57fe5b9050602002013573ffffffffffffffffffffffffffffffffffffffff1673ffffffffffffffffffffffffffffffffffffffff1614613d71576040517f08c379a000000000000000000000000000000000000000000000000000000000815260040180806020018281038252601d8152602001807f556e69737761705632526f757465723a20494e56414c49445f5041544800000081525060200191505060405180910390fd5b613dbc87878780806020026020016040519081016040528093929190818152602001838360200280828437600081840152601f19601f82011690508083019250505050505050611ea5565b91503482600081518110613dcc57fe5b60200260200101511115613e2b576040517f08c379a00000000000000000000000000000000000000000000000000000000081526004018080602001828103825260278152602001806156956027913960400191505060405180910390fd5b600260009054906101000a900473ffffffffffffffffffffffffffffffffffffffff1673ffffffffffffffffffffffffffffffffffffffff1663d0e30db083600081518110613e7657fe5b60200260200101516040518263ffffffff1660e01b81526004016000604051808303818588803b158015613ea957600080fd5b505af1158015613ebd573d6000803e3d6000fd5b5050505050600260009054906101000a900473ffffffffffffffffffffffffffffffffffffffff1673ffffffffffffffffffffffffffffffffffffffff1663a9059cbb613f5c88886000818110613f1057fe5b9050602002013573ffffffffffffffffffffffffffffffffffffffff1689896001818110613f3a57fe5b9050602002013573ffffffffffffffffffffffffffffffffffffffff1661460a565b84600081518110613f6957fe5b60200260200101516040518363ffffffff1660e01b8152600401808373ffffffffffffffffffffffffffffffffffffffff1673ffffffffffffffffffffffffffffffffffffffff16815260200182815260200192505050602060405180830381600087803b158015613fda57600080fd5b505af1158015613fee573d6000803e3d6000fd5b505050506040513d602081101561400457600080fd5b810190808051906020019092919050505061401b57fe5b61406782878780806020026020016040519081016040528093929190818152602001838360200280828437600081840152601f19601f82011690508083019250505050505050866149c0565b8160008151811061407457fe5b60200260200101513411156140ab576140aa61408e6112eb565b8360008151811061409b57fe5b60200260200101513403614302565b5b5095945050505050565b600060608473ffffffffffffffffffffffffffffffffffffffff166040518060400160405280601981526020017f7472616e7366657228616464726573732c75696e743235362900000000000000815250805190602001208585604051602401808373ffffffffffffffffffffffffffffffffffffffff1673ffffffffffffffffffffffffffffffffffffffff16815260200182815260200192505050604051602081830303815290604052907bffffffffffffffffffffffffffffffffffffffffffffffffffffffff19166020820180517bffffffffffffffffffffffffffffffffffffffffffffffffffffffff83818316178352505050506040518082805190602001908083835b602083106141e257805182526020820191506020810190506020830392506141bf565b6001836020036101000a0380198251168184511680821785525050505050509050019150506000604051808303816000865af19150503d8060008114614244576040519150601f19603f3d011682016040523d82523d6000602084013e614249565b606091505b50915091508180156142895750600081511480614288575080806020019051602081101561427657600080fd5b81019080805190602001909291905050505b5b6142fb576040517f08c379a00000000000000000000000000000000000000000000000000000000081526004018080602001828103825260208152602001807f556e69737761705632526f757465723a205452414e534645525f4641494c454481525060200191505060405180910390fd5b5050505050565b60008273ffffffffffffffffffffffffffffffffffffffff168260006040519080825280601f01601f1916602001820160405280156143505781602001600182028038833980820191505090505b506040518082805190602001908083835b602083106143845780518252602082019150602081019050602083039250614361565b6001836020036101000a03801982511681845116808217855250505050505090500191505060006040518083038185875af1925050503d80600081146143e6576040519150601f19603f3d011682016040523d82523d6000602084013e6143eb565b606091505b5050905080614445576040517f08c379a00000000000000000000000000000000000000000000000000000000081526004018080602001828103825260248152602001806156bc6024913960400191505060405180910390fd5b505050565b60008083141561445d57600090506144ca565b600082840290508284828161446e57fe5b04146144c5576040517f08c379a000000000000000000000000000000000000000000000000000000000815260040180806020018281038252602181526020018061562e6021913960400191505060405180910390fd5b809150505b92915050565b60008082840190508381101561454e576040517f08c379a000000000000000000000000000000000000000000000000000000000815260040180806020018281038252601b8152602001807f536166654d6174683a206164646974696f6e206f766572666c6f77000000000081525060200191505060405180910390fd5b8091505092915050565b6000600161456d61456887615275565b615374565b83868660405160008152602001604052604051808581526020018460ff1660ff1681526020018381526020018281526020019450505050506020604051602081039080840390855afa1580156145c7573d6000803e3d6000fd5b5050506020604051035173ffffffffffffffffffffffffffffffffffffffff168673ffffffffffffffffffffffffffffffffffffffff1614905095945050505050565b60008060006146198585614d83565b9150915073e2f197885abe8ec7c866cff76605fd06d45762188282604051602001808373ffffffffffffffffffffffffffffffffffffffff1673ffffffffffffffffffffffffffffffffffffffff1660601b81526014018273ffffffffffffffffffffffffffffffffffffffff1673ffffffffffffffffffffffffffffffffffffffff1660601b8152601401925050506040516020818303038152906040528051906020012060405160200180807fff000000000000000000000000000000000000000000000000000000000000008152506001018373ffffffffffffffffffffffffffffffffffffffff1673ffffffffffffffffffffffffffffffffffffffff1660601b8152601401828152602001807f0b77fb54a078d9399fa29cac94f5b35b9f11611b456ab507c7f46754712b642b815250602001925050506040516020818303038152906040528051906020012060001c9250505092915050565b600060608573ffffffffffffffffffffffffffffffffffffffff1660405180606001604052806025815260200161552e6025913980519060200120868686604051602401808473ffffffffffffffffffffffffffffffffffffffff1673ffffffffffffffffffffffffffffffffffffffff1681526020018373ffffffffffffffffffffffffffffffffffffffff1673ffffffffffffffffffffffffffffffffffffffff1681526020018281526020019350505050604051602081830303815290604052907bffffffffffffffffffffffffffffffffffffffffffffffffffffffff19166020820180517bffffffffffffffffffffffffffffffffffffffffffffffffffffffff83818316178352505050506040518082805190602001908083835b602083106148bc5780518252602082019150602081019050602083039250614899565b6001836020036101000a0380198251168184511680821785525050505050509050019150506000604051808303816000865af19150503d806000811461491e576040519150601f19603f3d011682016040523d82523d6000602084013e614923565b606091505b50915091508180156149635750600081511480614962575080806020019051602081101561495057600080fd5b81019080805190602001909291905050505b5b6149b8576040517f08c379a00000000000000000000000000000000000000000000000000000000081526004018080602001828103825260258152602001806156706025913960400191505060405180910390fd5b505050505050565b60005b6001835103811015614c0c576000808483815181106149de57fe5b60200260200101518560018501815181106149f557fe5b6020026020010151915091506000614a0d8383614d83565b5090506000876001860181518110614a2157fe5b602002602001015190506000808373ffffffffffffffffffffffffffffffffffffffff168673ffffffffffffffffffffffffffffffffffffffff1614614a6957826000614a6d565b6000835b91509150600060028a51038810614a845788614aa5565b614aa4868b60028b0181518110614a9757fe5b602002602001015161460a565b5b9050614ab1878761460a565b73ffffffffffffffffffffffffffffffffffffffff1663022c0d9f84848460006040519080825280601f01601f191660200182016040528015614b035781602001600182028038833980820191505090505b506040518563ffffffff1660e01b8152600401808581526020018481526020018373ffffffffffffffffffffffffffffffffffffffff1673ffffffffffffffffffffffffffffffffffffffff16815260200180602001828103825283818151815260200191508051906020019080838360005b83811015614b91578082015181840152602081019050614b76565b50505050905090810190601f168015614bbe5780820380516001836020036101000a031916815260200191505b5095505050505050600060405180830381600087803b158015614be057600080fd5b505af1158015614bf4573d6000803e3d6000fd5b505050505050505050505080806001019150506149c3565b50505050565b6000806000614c218585614d83565b509050600080614c31878761460a565b73ffffffffffffffffffffffffffffffffffffffff16630902f1ac6040518163ffffffff1660e01b815260040160606040518083038186803b158015614c7657600080fd5b505afa158015614c8a573d6000803e3d6000fd5b505050506040513d6060811015614ca057600080fd5b81019080805190602001909291908051906020019092919080519060200190929190505050506dffffffffffffffffffffffffffff1691506dffffffffffffffffffffffffffff1691508273ffffffffffffffffffffffffffffffffffffffff168773ffffffffffffffffffffffffffffffffffffffff1614614d24578082614d27565b81815b80955081965050505050509250929050565b6000614d7b83836040518060400160405280601e81526020017f536166654d6174683a207375627472616374696f6e206f766572666c6f7700008152506153db565b905092915050565b6000808273ffffffffffffffffffffffffffffffffffffffff168473ffffffffffffffffffffffffffffffffffffffff161415614e0b576040517f08c379a00000000000000000000000000000000000000000000000000000000081526004018080602001828103825260248152602001806155966024913960400191505060405180910390fd5b8273ffffffffffffffffffffffffffffffffffffffff168473ffffffffffffffffffffffffffffffffffffffff1610614e45578284614e48565b83835b8092508193505050600073ffffffffffffffffffffffffffffffffffffffff168273ffffffffffffffffffffffffffffffffffffffff161415614ef3576040517f08c379a000000000000000000000000000000000000000000000000000000000815260040180806020018281038252601d8152602001807f556e6973776170563248656c7065723a205a45524f5f4144445245535300000081525060200191505060405180910390fd5b9250929050565b600080600073ffffffffffffffffffffffffffffffffffffffff1673e2f197885abe8ec7c866cff76605fd06d457621873ffffffffffffffffffffffffffffffffffffffff1663e6a439058a8a6040518363ffffffff1660e01b8152600401808373ffffffffffffffffffffffffffffffffffffffff1673ffffffffffffffffffffffffffffffffffffffff1681526020018273ffffffffffffffffffffffffffffffffffffffff1673ffffffffffffffffffffffffffffffffffffffff1681526020019250505060206040518083038186803b158015614fda57600080fd5b505afa158015614fee573d6000803e3d6000fd5b505050506040513d602081101561500457600080fd5b810190808051906020019092919050505073ffffffffffffffffffffffffffffffffffffffff1614156151355773e2f197885abe8ec7c866cff76605fd06d457621873ffffffffffffffffffffffffffffffffffffffff1663c9c6539689896040518363ffffffff1660e01b8152600401808373ffffffffffffffffffffffffffffffffffffffff1673ffffffffffffffffffffffffffffffffffffffff1681526020018273ffffffffffffffffffffffffffffffffffffffff1673ffffffffffffffffffffffffffffffffffffffff16815260200192505050602060405180830381600087803b1580156150f857600080fd5b505af115801561510c573d6000803e3d6000fd5b505050506040513d602081101561512257600080fd5b8101908080519060200190929190505050505b6000806151428a8a614c12565b915091506000821480156151565750600081145b1561516a5787878094508195505050615268565b6000615177898484612fe3565b90508781116151e857858110156151d9576040517f08c379a00000000000000000000000000000000000000000000000000000000081526004018080602001828103825260268152602001806155ba6026913960400191505060405180910390fd5b88818095508196505050615266565b60006151f5898486612fe3565b90508981111561520157fe5b8781101561525a576040517f08c379a00000000000000000000000000000000000000000000000000000000081526004018080602001828103825260268152602001806156e06026913960400191505060405180910390fd5b80898096508197505050505b505b5050965096945050505050565b600060405180608001604052806043815260200161555360439139805190602001208260000151836020015184604001516040518082805190602001908083835b602083106152d957805182526020820191506020810190506020830392506152b6565b6001836020036101000a0380198251168184511680821785525050505050509050019150506040518091039020604051602001808581526020018481526020018373ffffffffffffffffffffffffffffffffffffffff1673ffffffffffffffffffffffffffffffffffffffff168152602001828152602001945050505050604051602081830303815290604052805190602001209050919050565b600061537e61549b565b8260405160200180807f190100000000000000000000000000000000000000000000000000000000000081525060020183815260200182815260200192505050604051602081830303815290604052805190602001209050919050565b6000838311158290615488576040517f08c379a00000000000000000000000000000000000000000000000000000000081526004018080602001828103825283818151815260200191508051906020019080838360005b8381101561544d578082015181840152602081019050615432565b50505050905090810190601f16801561547a5780820380516001836020036101000a031916815260200191505b509250505060405180910390fd5b5060008385039050809150509392505050565b60008054905090565b604051806060016040528060008152602001600073ffffffffffffffffffffffffffffffffffffffff16815260200160608152509056fe556e6973776170563248656c7065723a20494e53554646494349454e545f4c4951554944495459556e6973776170563248656c7065723a20494e53554646494349454e545f4f55545055545f414d4f554e547472616e7366657246726f6d28616464726573732c616464726573732c75696e74323536294d6574615472616e73616374696f6e2875696e74323536206e6f6e63652c616464726573732066726f6d2c62797465732066756e6374696f6e5369676e617475726529556e6973776170563248656c7065723a204944454e544943414c5f414444524553534553556e69737761705632526f757465723a20494e53554646494349454e545f425f414d4f554e54556e6973776170563248656c7065723a20494e53554646494349454e545f494e5055545f414d4f554e54556e6973776170563248656c7065723a20494e53554646494349454e545f414d4f554e54536166654d6174683a206d756c7469706c69636174696f6e206f766572666c6f775369676e657220616e64207369676e617475726520646f206e6f74206d61746368556e69737761705632526f757465723a205452414e534645525f46524f4d5f4641494c4544556e69737761705632526f757465723a204558434553534956455f494e5055545f414d4f554e54556e69737761705632526f757465723a204554485f5452414e534645525f4641494c4544556e69737761705632526f757465723a20494e53554646494349454e545f415f414d4f554e54556e69737761705632526f757465723a20494e53554646494349454e545f4f55545055545f414d4f554e54a265627a7a72315820587f91625b7832fdde0a1a3c35cb4bf472e0d32471465405a6035aaaecb606c764736f6c63430005100032454950373132446f6d61696e28737472696e67206e616d652c737472696e672076657273696f6e2c75696e7432353620636861696e49642c6164647265737320766572696679696e67436f6e747261637429",
  "source": "pragma solidity =0.5.16;\n\nimport './interfaces/IUniswapV2Router01.sol';\nimport './UniswapV2Library.sol';\nimport './interfaces/IWETH.sol';\nimport './EIP712MetaTransaction.sol';\n\n// on ropsten : 0x525f02b7231355dE76624BbC73F2B915EF1a903A\n\ncontract UniswapV2Router01Gaseless is IUniswapV2Router01, UniswapV2Library, EIP712MetaTransaction {\n    bytes4 private constant SELECTOR_TRANSFER = bytes4(keccak256(bytes('transfer(address,uint256)')));\n    bytes4 private constant SELECTOR_TRANSFER_FROM = bytes4(keccak256(bytes('transferFrom(address,address,uint256)')));\n\n    IWETH public WETH;\n\n    // **** TRANSFER HELPERS ****\n    function _safeTransfer(address token, address to, uint value) private {\n        (bool success, bytes memory data) = token.call(abi.encodeWithSelector(SELECTOR_TRANSFER, to, value));\n        require(success && (data.length == 0 || abi.decode(data, (bool))), 'UniswapV2Router: TRANSFER_FAILED');\n    }\n    function _safeTransferFrom(address token, address from, address to, uint value) private {\n        (bool success, bytes memory data) = token.call(abi.encodeWithSelector(SELECTOR_TRANSFER_FROM, from, to, value));\n        require(success && (data.length == 0 || abi.decode(data, (bool))), 'UniswapV2Router: TRANSFER_FROM_FAILED');\n    }\n    function _safeTransferETH(address to, uint value) private {\n        (bool success,) = to.call.value(value)(new bytes(0));\n        require(success, 'UniswapV2Router: ETH_TRANSFER_FAILED');\n    }\n\n    modifier ensure(uint deadline) {\n        require(deadline >= block.timestamp, 'UniswapV2Router: EXPIRED');\n        _;\n    }\n\n    constructor(address _WETH) EIP712MetaTransaction(\"UniswapV2Router01Gaseless\",\"1.0.0\") public {\n        WETH = IWETH(_WETH);\n    }\n\n    function() external payable {\n        assert(msgSender() == address(WETH)); // only accept ETH via fallback from the WETH contract\n    }\n\n    // **** ADD LIQUIDITY ****\n    function _addLiquidity(\n        address tokenA,\n        address tokenB,\n        uint amountADesired,\n        uint amountBDesired,\n        uint amountAMin,\n        uint amountBMin\n    ) private returns (uint amountA, uint amountB) {\n        // create the pair if it doesn't exist yet\n        if (factory.getPair(tokenA, tokenB) == address(0)) factory.createPair(tokenA, tokenB);\n        (uint reserveA, uint reserveB) = getReserves(tokenA, tokenB);\n        if (reserveA == 0 && reserveB == 0) {\n            (amountA, amountB) = (amountADesired, amountBDesired);\n        } else {\n            uint amountBOptimal = quote(amountADesired, reserveA, reserveB);\n            if (amountBOptimal <= amountBDesired) {\n                require(amountBOptimal >= amountBMin, 'UniswapV2Router: INSUFFICIENT_B_AMOUNT');\n                (amountA, amountB) = (amountADesired, amountBOptimal);\n            } else {\n                uint amountAOptimal = quote(amountBDesired, reserveB, reserveA);\n                assert(amountAOptimal <= amountADesired);\n                require(amountAOptimal >= amountAMin, 'UniswapV2Router: INSUFFICIENT_A_AMOUNT');\n                (amountA, amountB) = (amountAOptimal, amountBDesired);\n            }\n        }\n    }\n    function addLiquidity(\n        address tokenA,\n        address tokenB,\n        uint amountADesired,\n        uint amountBDesired,\n        uint amountAMin,\n        uint amountBMin,\n        address to,\n        uint deadline\n    ) external ensure(deadline) returns (uint amountA, uint amountB, uint liquidity) {\n        (amountA, amountB) = _addLiquidity(tokenA, tokenB, amountADesired, amountBDesired, amountAMin, amountBMin);\n        address pair = pairFor(tokenA, tokenB);\n        _safeTransferFrom(tokenA, msgSender(), pair, amountA);\n        _safeTransferFrom(tokenB, msgSender(), pair, amountB);\n        liquidity = IUniswapV2Pair(pair).mint(to);\n    }\n    function addLiquidityETH(\n        address token,\n        uint amountTokenDesired,\n        uint amountTokenMin,\n        uint amountETHMin,\n        address to,\n        uint deadline\n    ) external payable ensure(deadline) returns (uint amountToken, uint amountETH, uint liquidity) {\n        (amountToken, amountETH) = _addLiquidity(\n            token,\n            address(WETH),\n            amountTokenDesired,\n            msg.value,\n            amountTokenMin,\n            amountETHMin\n        );\n        address pair = pairFor(token, address(WETH));\n        _safeTransferFrom(token, msgSender(), pair, amountToken);\n        WETH.deposit.value(amountETH)();\n        assert(WETH.transfer(pair, amountETH));\n        liquidity = IUniswapV2Pair(pair).mint(to);\n        if (msg.value > amountETH) _safeTransferETH(msgSender(), msg.value - amountETH); // refund dust eth, if any\n    }\n\n    // **** REMOVE LIQUIDITY ****\n    function removeLiquidity(\n        address tokenA,\n        address tokenB,\n        uint liquidity,\n        uint amountAMin,\n        uint amountBMin,\n        address to,\n        uint deadline\n    ) public ensure(deadline) returns (uint amountA, uint amountB) {\n        address pair = pairFor(tokenA, tokenB);\n        IUniswapV2Pair(pair).transferFrom(msgSender(), pair, liquidity); // send liquidity to pair\n        (uint amount0, uint amount1) = IUniswapV2Pair(pair).burn(to);\n        (address token0,) = sortTokens(tokenA, tokenB);\n        (amountA, amountB) = tokenA == token0 ? (amount0, amount1) : (amount1, amount0);\n        require(amountA >= amountAMin, 'UniswapV2Router: INSUFFICIENT_A_AMOUNT');\n        require(amountB >= amountBMin, 'UniswapV2Router: INSUFFICIENT_B_AMOUNT');\n    }\n    function removeLiquidityETH(\n        address token,\n        uint liquidity,\n        uint amountTokenMin,\n        uint amountETHMin,\n        address to,\n        uint deadline\n    ) public ensure(deadline) returns (uint amountToken, uint amountETH) {\n        (amountToken, amountETH) = removeLiquidity(\n            token,\n            address(WETH),\n            liquidity,\n            amountTokenMin,\n            amountETHMin,\n            address(this),\n            deadline\n        );\n        _safeTransfer(token, to, amountToken);\n        WETH.withdraw(amountETH);\n        _safeTransferETH(to, amountETH);\n    }\n    function removeLiquidityWithPermit(\n        address tokenA,\n        address tokenB,\n        uint liquidity,\n        uint amountAMin,\n        uint amountBMin,\n        address to,\n        uint deadline,\n        bool approveMax, uint8 v, bytes32 r, bytes32 s\n    ) external returns (uint amountA, uint amountB) {\n        address pair = pairFor(tokenA, tokenB);\n        uint value = approveMax ? uint(-1) : liquidity;\n        IUniswapV2Pair(pair).permit(msgSender(), address(this), value, deadline, v, r, s);\n        (amountA, amountB) = removeLiquidity(tokenA, tokenB, liquidity, amountAMin, amountBMin, to, deadline);\n    }\n    function removeLiquidityETHWithPermit(\n        address token,\n        uint liquidity,\n        uint amountTokenMin,\n        uint amountETHMin,\n        address to,\n        uint deadline,\n        bool approveMax, uint8 v, bytes32 r, bytes32 s\n    ) external returns (uint amountToken, uint amountETH) {\n        address pair = pairFor(token, address(WETH));\n        uint value = approveMax ? uint(-1) : liquidity;\n        IUniswapV2Pair(pair).permit(msgSender(), address(this), value, deadline, v, r, s);\n        (amountToken, amountETH) = removeLiquidityETH(token, liquidity, amountTokenMin, amountETHMin, to, deadline);\n    }\n\n    // **** SWAP ****\n    // requires the initial amount to have already been sent to the first pair\n    function _swap(uint[] memory amounts, address[] memory path, address _to) private {\n        for (uint i; i < path.length - 1; i++) {\n            (address input, address output) = (path[i], path[i + 1]);\n            (address token0,) = sortTokens(input, output);\n            uint amountOut = amounts[i + 1];\n            (uint amount0Out, uint amount1Out) = input == token0 ? (uint(0), amountOut) : (amountOut, uint(0));\n            address to = i < path.length - 2 ? pairFor(output, path[i + 2]) : _to;\n            IUniswapV2Pair(pairFor(input, output)).swap(amount0Out, amount1Out, to, new bytes(0));\n        }\n    }\n    function swapExactTokensForTokens(\n        uint amountIn,\n        uint amountOutMin,\n        address[] calldata path,\n        address to,\n        uint deadline\n    ) external ensure(deadline) returns (uint[] memory amounts) {\n        amounts = getAmountsOut(amountIn, path);\n        require(amounts[amounts.length - 1] >= amountOutMin, 'UniswapV2Router: INSUFFICIENT_OUTPUT_AMOUNT');\n        _safeTransferFrom(path[0], msgSender(), pairFor(path[0], path[1]), amounts[0]);\n        _swap(amounts, path, to);\n    }\n    function swapTokensForExactTokens(\n        uint amountOut,\n        uint amountInMax,\n        address[] calldata path,\n        address to,\n        uint deadline\n    ) external ensure(deadline) returns (uint[] memory amounts) {\n        amounts = getAmountsIn(amountOut, path);\n        require(amounts[0] <= amountInMax, 'UniswapV2Router: EXCESSIVE_INPUT_AMOUNT');\n        _safeTransferFrom(path[0], msgSender(), pairFor(path[0], path[1]), amounts[0]);\n        _swap(amounts, path, to);\n    }\n    function swapExactETHForTokens(uint amountOutMin, address[] calldata path, address to, uint deadline)\n        external\n        payable\n        ensure(deadline)\n        returns (uint[] memory amounts)\n    {\n        require(path[0] == address(WETH), 'UniswapV2Router: INVALID_PATH');\n        amounts = getAmountsOut(msg.value, path);\n        require(amounts[amounts.length - 1] >= amountOutMin, 'UniswapV2Router: INSUFFICIENT_OUTPUT_AMOUNT');\n        WETH.deposit.value(amounts[0])();\n        assert(WETH.transfer(pairFor(path[0], path[1]), amounts[0]));\n        _swap(amounts, path, to);\n    }\n    function swapTokensForExactETH(uint amountOut, uint amountInMax, address[] calldata path, address to, uint deadline)\n        external\n        ensure(deadline)\n        returns (uint[] memory amounts)\n    {\n        require(path[path.length - 1] == address(WETH), 'UniswapV2Router: INVALID_PATH');\n        amounts = getAmountsIn(amountOut, path);\n        require(amounts[0] <= amountInMax, 'UniswapV2Router: EXCESSIVE_INPUT_AMOUNT');\n        _safeTransferFrom(path[0], msgSender(), pairFor(path[0], path[1]), amounts[0]);\n        _swap(amounts, path, address(this));\n        WETH.withdraw(amounts[amounts.length - 1]);\n        _safeTransferETH(to, amounts[amounts.length - 1]);\n    }\n    function swapExactTokensForETH(uint amountIn, uint amountOutMin, address[] calldata path, address to, uint deadline)\n        external\n        ensure(deadline)\n        returns (uint[] memory amounts)\n    {\n        require(path[path.length - 1] == address(WETH), 'UniswapV2Router: INVALID_PATH');\n        amounts = getAmountsOut(amountIn, path);\n        require(amounts[amounts.length - 1] >= amountOutMin, 'UniswapV2Router: INSUFFICIENT_OUTPUT_AMOUNT');\n        _safeTransferFrom(path[0], msgSender(), pairFor(path[0], path[1]), amounts[0]);\n        _swap(amounts, path, address(this));\n        WETH.withdraw(amounts[amounts.length - 1]);\n        _safeTransferETH(to, amounts[amounts.length - 1]);\n    }\n    function swapETHForExactTokens(uint amountOut, address[] calldata path, address to, uint deadline)\n        external\n        payable\n        ensure(deadline)\n        returns (uint[] memory amounts)\n    {\n        require(path[0] == address(WETH), 'UniswapV2Router: INVALID_PATH');\n        amounts = getAmountsIn(amountOut, path);\n        require(amounts[0] <= msg.value, 'UniswapV2Router: EXCESSIVE_INPUT_AMOUNT');\n        WETH.deposit.value(amounts[0])();\n        assert(WETH.transfer(pairFor(path[0], path[1]), amounts[0]));\n        _swap(amounts, path, to);\n        if (msg.value > amounts[0]) _safeTransferETH(msgSender(), msg.value - amounts[0]); // refund dust eth, if any\n    }\n}\n",
  "sourcePath": "/home/guest/blockchain/MoneyLegos/contracts/UniswapV2Router01Gaseless.sol",
  "compiler": {
    "name": "solc",
    "version": "0.5.16+commit.9c3226ce.Emscripten.clang"
  },
  "schemaVersion": "3.0.23",
  "updatedAt": "2020-04-07T10:47:32.987Z",
  "devdoc": {
    "methods": {}
  },
  "userdoc": {
    "methods": {}
  }
}